:020000040800F2
:10000000B81200205D010008D70C0008D50C0008CC
:1000100000000000000000000000000000000000E0
:10002000000000000000000000000000DB0C0008E1
:100030000000000000000000D90C0008DD0C0008E2
:100040006F010008000000006F0100086F01000848
:100050006F0100086F0100086F0100086F010008C0
:10006000000000006F0100086F0100086F01000828
:100070006F0100086F0100086F0100080000000018
:100080006F0100086F0100086F0100086F01000890
:100090006F0100086F0100086F0100086F01000880
:1000A0006F0100086F0100086F0100086F01000870
:1000B0006F0100086F01000800F002F800F03EF840
:1000C0000CA030C8083824182D18A246671EAB466D
:1000D00054465D46AC4201D100F030F87E460F3EFA
:1000E0000FCCB6460126334200D0FB1AA246AB46DF
:1000F00033431847080E0000280E0000103A02D3C0
:1001000078C878C1FAD8520701D330C830C101D5B8
:1001100004680C60704700000023002400250026BE
:10012000103A01D378C1FBD8520700D330C100D5B3
:100130000B6070471FB51FBD10B510BD00F08CF9E6
:100140001146FFF7F7FF00F079FE00F0A4F903B4C1
:10015000FFF7F2FF03BC00F0ABF90000074880474F
:1001600007480047FEE7FEE7FEE7FEE7FEE7FEE79B
:1001700004480549054A064B70470000350D000844
:10018000B9000008B8000020B8120020B802002012
:10019000B802002010B5202A04DB0846203AD040DF
:1001A000002110BD0B462024D340D040A21A91401C
:1001B0000843194610BDFEB5054610460C461843C7
:1001C00073D0AE468C460020AD1A01469C4167D3E1
:1001D0006646002701243D46B61A9D4102D31346C8
:1001E0003A462124654676462F04360C3E432D0CB4
:1001F000B61A9D4104D3150C1B042B431204103472
:10020000654676462F06360A3E432D0AB61A9D41AC
:1002100004D3150E1B022B431202083465467646A2
:100220002F0736093E432D09B61A9D4104D3150FF9
:100230001B012B431201241D65467646AF07B60805
:100240003E43AD08B61A9D4104D3950F9B002B4346
:100250009200A41C65467646EF0776083E436D087B
:10026000B61A9D411AD392185B41641C16E000181F
:10027000764665464941B71A9D410191009009D3E0
:100280006046B11A98418E4684460098019900252F
:10029000401C6941DD0752082A435B08641EE6D50D
:1002A0007246634603B0F0BDFFE700200146C0463A
:1002B000C0462A462346F5E701E004C0091F042989
:1002C000FBD28B0701D50280801CC90700D00270C9
:1002D000704700290BD0C30702D00270401C491E92
:1002E000022904D3830702D50280801C891EE3E71C
:1002F0000022EEE70022DFE7002203098B422CD325
:10030000030A8B4211D300239C464EE003460B4365
:100310003CD4002243088B4231D303098B421CD3C7
:10032000030A8B4201D394463FE0C3098B4201D3B9
:10033000CB01C01A524183098B4201D38B01C01AF1
:10034000524143098B4201D34B01C01A5241030968
:100350008B4201D30B01C01A5241C3088B4201D317
:10036000CB00C01A524183088B4201D38B00C01AC4
:10037000524143088B4201D34B00C01A5241411AEB
:1003800000D201465241104670475DE0CA0F00D0CE
:100390004942031000D34042534000229C460309C7
:1003A0008B422DD3030A8B4212D3FC22890112BA4D
:1003B000030A8B420CD3890192118B4208D3890125
:1003C00092118B4204D389013AD0921100E089093D
:1003D000C3098B4201D3CB01C01A524183098B421E
:1003E00001D38B01C01A524143098B4201D34B0107
:1003F000C01A524103098B4201D30B01C01A52416A
:10040000C3088B4201D3CB00C01A524183088B42F0
:1004100001D38B00C01A5241D9D243088B4201D379
:100420004B00C01A5241411A00D201466346524164
:100430005B10104601D34042002B00D54942704763
:1004400063465B1000D3404201B50020C046C04661
:1004500002BD704770477047754600F025F8AE46FC
:10046000050069465346C008C000854618B020B54F
:10047000FFF77EFE60BC00274908B6460026C0C5CF
:10048000C0C5C0C5C0C5C0C5C0C5C0C5C0C5403D4C
:1004900049008D46704710B50446C046C046204608
:1004A000FFF755FE10BD00000048704758000020BF
:1004B00001491820ABBEFEE726000200704700008D
:1004C00006490020C8610648016904221143016100
:1004D000016940221143016170470000380000208B
:1004E00000200240064A0021D16106490A69022320
:1004F0001A430A6148610869402210430861704745
:10050000380000200020024010B5054B0022DA61BF
:10051000044A1369012423431361018010BD0000C4
:10052000380000200020024010B50B4A0020D1689E
:10053000CB060A4904D5C86902231843C8611020B4
:10054000D3685B0705D5CB6901242343CB61042124
:100550000843D06010BD0000002002403800002099
:1005600070B5054600F0C6F80646104C0AE0681C57
:1005700008D0002D04D000F0BDF8801BA84201D99E
:10058000032070BDE068C007F1D1E068800601D5A6
:100590002020E060E068C00602D4E068400703D590
:1005A000FFF7C2FF012070BD002070BD0020024097
:1005B000F8B5054623480F46017E012601290BD0D8
:1005C000012101762868204C012807D02046FFF73A
:1005D000C7FF002813D030E00220F8BD2046FFF707
:1005E000BFFF002829D1FFF76BFF2046FFF7B8FFB8
:1005F0000646164801690422914301611DE000206E
:10060000C04338606C6812E02046FFF76BFF0E486D
:10061000FFF7A6FF06460D48026902218A430261E0
:10062000002E01D03C6008E00120C0022418A86818
:10063000C10268680818A042E6D802480021017685
:100640003046F8BD3800002050C3000000200240B2
:10065000F0B51FB407461A480024017E15461E4611
:10066000012907D0012101761648FFF779FF0028FC
:1006700003D020E0022005B0F0BD012F02D0022FF0
:1006800000D00427220128463146FFF783FD81B2BE
:10069000019862001018FFF737FF0A48FFF760FF64
:1006A00009490A69520852000A61002803D1641CF2
:1006B000E4B2BC42E6D3024900220A76DBE700003E
:1006C0003800002050C300000020024006490020EE
:1006D0000A69120607D5054A4A60054A4A6009694F
:1006E000090600D50120704700200240230167451C
:1006F000AB89EFCD014880687047000028000020DA
:1007000002488168027889188160704728000020BB
:1007100010B506480168102211430160032000F063
:1007200007F800F027F8002010BD0000002002406C
:1007300070B504460D4D7D202978C000FFF7DCFD23
:1007400001460B480068FFF7D7FD00F0ABFA002820
:1007500009D1042C07D200222146401E00F01EF8C9
:1007600000206C6070BD012070BD000028000020DA
:100770003400002008B508488169012211438161D5
:10078000816911400091C26901040A43C261C069D4
:100790000840009008BD00000010024010B500F0B5
:1007A000E3FA10BDF8B50F46060059D03A4D286857
:1007B000C007C00FB84209D228684008400038433B
:1007C00028602868C007C00FB84249D13068334C50
:1007D00081070CD5400704D560680721090208434A
:1007E00060606068F0218843B168084360603078D9
:1007F000C00726D0706801280ED0216802280ED0CC
:10080000890700292CDA6168890889000143616041
:10081000FFF770FF00900DE021688903F1E789017F
:10082000EFE7FFF767FF0099411A1D48814201D9A0
:100830000320F8BD60680C21084071688900884277
:10084000EFD12868C007C00FB8420BD9286840080C
:100850004000384328602868C007C00FB84201D064
:100860000120F8BD3078400706D5606807210902ED
:100870008843F1680843606000F018F86168094A2D
:100880000906090F515CC840074908600320FFF7BB
:100890004FFF0020F8BD0000002002400010024081
:1008A00088130000EC0E00083400002010B512A3DD
:1008B0000FCB88B06C460FC413A30FCB0FC41649DF
:1008C0004B680C201A4602401448042A12D0082A09
:1008D00010D19A02120F6C46A45CC96A04AA0907D7
:1008E000090F525CD90300231946FFF764FC214627
:1008F00000F021FA08B010BD02030405060708093C
:100900000A0B0C0D0E0F1010010203040506070858
:10091000090A0B0C0D0E0F100010024000127A0095
:10092000FEB504007AD02078DA4EDB4DC00746D001
:1009300068680007800F012807D068680007800FEB
:10094000022809D16868C00306D52868800336D517
:1009500060680028E6D032E06168012912D00120E9
:100960008004002901D0052910D02968B1432960ED
:100970002968814329606068002814D0FFF7BAFE17
:1009800007460CE0286830432860F4E729680143F3
:100990002960F7E7FFF7AEFEC01B64287ED8286801
:1009A0008003F7D50BE0FFF7A5FE074604E0FFF74D
:1009B000A1FEC01B6428F1D828688003F7D42078F2
:1009C00080073BD568680007800F10D06868000773
:1009D000800F022800D16868E068002828681ED0CF
:1009E000012108432860FFF785FE07460BE02868D1
:1009F00080070BD5E068012810D107E0FFF77AFEE9
:100A0000C01B0228CAD828688007F7D52868F821B3
:100A100088432169C900084328600FE036E1400897
:100A200040002860FFF766FE074604E0FFF762FE1D
:100A3000C01B0228B2D828688007F7D420780007A6
:100A400022D5E0690028686A0FD001210843686256
:100A5000FFF750FE074604E0FFF74CFEC01B0228DC
:100A60009CD8686A8007F7D50EE0400840006862AD
:100A7000FFF740FE074604E0FFF73CFEC01B0228DC
:100A80008CD8686A8007F7D42078042740070028AC
:100A900063DA00200190E869C00000E08BE008D430
:100AA000E969B8060143E961E96901400120009163
:100AB00001907A480168C90511D401688215114373
:100AC0000160FFF717FE009005E0FFF713FE0099A5
:100AD000401A64286FD871480068C005F5D5A06831
:100AE00001280AD0002801D0052811D0286A400822
:100AF00040002862286AB84302E0286A01210843BE
:100B00002862A068002812D0FFF7F4FD00900AE0E8
:100B1000286A38432862F0E7FFF7ECFD0099411A94
:100B20005F48814247D8286A8007F5D50DE0FFF776
:100B3000E1FD009006E0FFF7DDFD0099411A5848FD
:100B4000814238D8286A8007F5D40198002804D05B
:100B5000E969012000078143E9612078C00636D5A4
:100B6000606901280CD0401D686B25D0384368634C
:100B7000686B400840006863FFF7BCFD074623E050
:100B8000686B38436863686B012108436863FFF74B
:100B9000B1FD074604E0FFF7ADFDC01B02285BD89E
:100BA000686B8007F7D5686BF8218843A169C90095
:100BB000084368630BE04FE0B8436863F3E7FFF76F
:100BC00099FDC01B022847D8686B8007F7D4206ABC
:100BD00000285DD069680907890F022942D00126E3
:100BE00036060228286805D0B0432860FFF782FD4A
:100BF000044633E0B0432860FFF77CFD074604E07D
:100C0000FFF778FDC01B022826D828688001F7D49A
:100C1000E86AE16A000900010843E862616AA06AC3
:100C2000084369683D2212049143084368602868BC
:100C300030432860FFF75EFD044604E0FFF75AFDED
:100C4000001B022808D828688001F7D520E0FFF7AC
:100C500051FD001B022801D90320FEBD2868800138
:100C6000F5D415E00128F8D06868E96A0246636A9D
:100C700032409A420AD10907E26A090F914205D12E
:100C80000F2189040840A16A884201D00120FEBDDD
:100C90000020FEBD00000100001002400070004076
:100CA00088130000094910B5401E884201D901206F
:100CB00010BD074C60610321081F00F055F80020AB
:100CC000A06107202061002010BD0000FFFFFF0091
:100CD00000E000E0FEE7FEE77047704710B5FFF761
:100CE0000FFD10BD10B590B030216846FFF702FB34
:100CF000002402200F9400900D94012003900E9484
:100D0000102004900C9408946846FFF709FE002810
:100D100001D072B6FEE707200C900D940E940021CE
:100D20000F940CA8FFF73EFD002801D072B6FEE735
:100D300010B010BD7047F8B5040C8BB2264682B2D5
:100D40005E430D0C1046370C5843360480190021C1
:100D5000794116466E43370C360480197941264690
:100D60006E438919F8BD00008307FF22DB0E9A400D
:100D70008907090E9940002808DB830809489B0071
:100D80001B18186890430843186070470007000F4D
:100D90000838830804489B001B18D869904308430F
:100DA000D861704700E400E000ED00E01FB50246A6
:100DB000064B00209A4207D202910090019203A9AB
:100DC0006846FFF7F5FB012004B010BD00000408E1
:100DD00010B5FFF77BFC02493520C86010BD00004C
:100DE00000200240F7B582B0164604460025124F97
:100DF0001AE0A800039900900A58216800230220F5
:100E0000FFF726FC002802D0012005B0F0BD2068C5
:100E10000399026800980858824201D00220F4E742
:100E20002068001D20606D1CB54202D22068B842C7
:100E3000DFD90020E9E70000FCFF030808B5FFF751
:100E400067FCFFF74FFF23484269012149040A4329
:100E50004261406908400090FFF7BAFF1F4C1E48EE
:100E6000A06000681E49E06088422AD11A48083014
:100E700000681949091DA16060610D6800212561A4
:100E80008202636804E05E5C2778F6192670491CCC
:100E90008A42F8D82178A94213D1401C114D41084B
:100EA0002846FFF783FF1049E561A1616069800270
:100EB00082080A481C30FFF795FF01210648FFF71A
:100EC00075FF0849486860622062096881F30888F4
:100ED0008047FEE70010024000F8030800000020F1
:100EE000CDABCDAB002000080000020800000000E0
:100EF0000000000001020304060708091C0F000897
:100F00000000002038000000FC000008540F00081A
:100F100038000020801200001801000800000000C6
:100F200000000208000000000000000000000000B7
:100F300000000000000000000000000000000000B1
:100F4000000000000100000004000000000000009C
:040F500000127A0011
:04000005080000B936
:00000001FF
