:020000040800F2
:10200000D8710020ED2100087D820008D77C0008EF
:1020100000000000000000000000000000000000C0
:10202000000000000000000000000000B98500086A
:1020300000000000000000007F820008BB8500084F
:10204000FF21000800000000FF210008FF21000818
:10205000FF210008FF210008914A0008A14A00085A
:1020600000000000FF210008FF210008FF210008F8
:10207000FF210008FF210008FF21000800000000E8
:10208000C5850008D5850008FF210008FF2100084C
:10209000FF210008FF210008FF210008FF210008A0
:1020A000FF210008FF210008FF210008FF21000890
:1020B000FF210008958A000800F002F800F06BF894
:1020C00012A030C8083824182D18AC4201D100F0F5
:1020D00062F80FCCA246AB460CA730CF2D1B083FB1
:1020E0003F197C427F1E54442D090426F441641E8E
:1020F000AC4201D300F04FF80126334200D0FB1A66
:102100003343984754465D46DFE70000A0070100CF
:10211000C0070100103A02D378C878C1FAD8520734
:1021200001D330C830C101D504680C60704700008D
:10213000704700000023002400250026103A01D338
:1021400078C1FBD8520700D330C100D50B6070476F
:1021500010B5662902D10EF0B5FE10BD642902D17A
:1021600000F0BEF810BD752902D100F0B9F810BD1D
:10217000782902D100F0EAF810BD002010BD1FB58B
:1021800001F030FE0400002000210EF001FDE060AF
:102190001FBD10B510BD02F009FA1146FFF7EFFFA1
:1021A0000AF09AF802F021FA03B4FFF7F2FF03BC39
:1021B00002F0CCFA70B505460C46164602E00FCC8C
:1021C0000FC5103E102EFAD2082E02D303CC03C541
:1021D000083E042E07D301CC01C5361F03E0217849
:1021E0002970641C6D1C761EF9D270BD07488047AB
:1021F00007480047FEE7FEE7FEE7FEE7FEE7FEE7EB
:1022000004480549054A064B70470000C38500088D
:10221000B9200008D81F0020D8710020D821002044
:10222000D821002010B5202A04DB0146203A914035
:10223000002010BD914020239C1A0346E34019431F
:10224000904010BD10B5202A04DB0846203AD0404B
:10225000002110BD0B462024D340D040A21A91404B
:102260000843194610BD00000FB41CB5074B06AA61
:102270007B4469460090059801F083FD0020694683
:1022800001F092FD1CBC08BC04B01847351B0000CF
:1022900070B5044685690068C10601D5302600E0A6
:1022A0002026C00707D070BD62683046A1689047FD
:1022B000206A401C20626D1EF6D570BD70B50446C4
:1022C00085690078C00707D170BD6268A1682020C9
:1022D0009047206A401C20626D1EF6D570BD00003C
:1022E000F7B5002575291068009914A611D0C046CD
:1022F000C046002802DA404211A608E000990968A9
:102300008A0701D50FA602E0490704D50EA60125CC
:1023100001E0C046C046009F0024243704E001F0DD
:1023200048FD30313955641C0028F8D12B4632461F
:102330002146009801F0BDFAFEBD0000000000003B
:102340002D0000002B0000002000000070B50446A6
:102350000D4621461068C046C0462188090502D5B1
:102360000F4A7A4402E00E4A7A440E322346002194
:10237000243305E006070009360F965D5E54491CBC
:102380000028F7D120780023000705D5702D03D051
:10239000002901D002231132204601F08AFA70BDD3
:1023A00006030100F3B50446002081B020622046F8
:1023B000E1688847002872D0252802D06268A168A9
:1023C000ABE0594F00267F442046E168884720282B
:1023D000054608DB312D06D2781920380078002810
:1023E00001D00643F0E7B00701D504208643002062
:1023F000E0610746A0612A2D0AD028460EF0C0FBF6
:10240000002827D0B8000019303D0090856119E000
:102410000298BA00121902C8916102902046E16840
:102420008847012F054617D1E06900281FDA2020D0
:1024300086431CE000980A218069484300994019AE
:10244000303888612046E168884705460EF098FBE1
:102450000028EFD1012F0AD02E2D08D12046E168A7
:1024600088470546202006437F1C022FC3DBA06956
:10247000002803DA4042A06101200643F00701D0A2
:10248000102086436C2D0BD0682D09D04C2D3CD0EC
:102490006A2D38D0742D38D07A2D36D016E040E031
:1024A000E1682F4620468847B842054609D16C2F7F
:1024B00029D001208002E16806432046884705466E
:1024C00004E06C2F1DD0FF2001300643002D28D0E2
:1024D00028464138192803D80120C0020643203578
:1024E000204626602946029A1646FFF731FE00284C
:1024F00010D001280BD0F61DF008C0000830029063
:1025000055E74020E1E78020D5E70020D3E7361DDE
:1025100002964CE762682846A1689047206A401CF2
:1025200044E7206AFEBD0000CA020100034610B560
:102530000B439B070FD1042A0DD308C810C9121FE3
:10254000A342F8D018BA21BA884201D9012010BD9F
:102550000020C04310BD002A03D0D30703D0521C73
:1025600007E0002010BD03780C78401C491C1B1BA1
:1025700007D103780C78401C491C1B1B01D1921E0B
:10258000F1D1184610BD0000034670B502460B435A
:102590009B070FD10E4CE60100E008C208C91D1BC5
:1025A0009D433542F9D0D9B21170521C00290DD08B
:1025B0001B0AF8E70B78491C1370521C002B05D03E
:1025C0000B78491C1370521C002BF3D170BD000016
:1025D0000101010130B5441C03E00178401C0029D1
:1025E0000DD08107F9D10B4BDD0104C8D11A9143FD
:1025F0002940FAD0001B0A0603D0C01E30BD001BC4
:1026000030BD0A0401D0801E30BD0902FCD0401E3E
:1026100030BD000001010101421E5378521C002B05
:10262000FBD10B78491C1370521C002BF9D1704759
:10263000F8B5042A2CD3830712D00B78491C0370F9
:10264000401C521E83070BD00B78491C0370401CA2
:10265000521E830704D00B78491C0370401C521E85
:102660008B079B0F05D0C91ADF002023DE1B08C98A
:102670000AE0FFF79FFDF8BD1D4608C9FD401C4656
:10268000B4402C4310C0121F042AF5D2F308C91A13
:10269000521EF0D40B78491C0370401C521EEAD421
:1026A0000B78491C0370401C012AE4D4097801709E
:1026B000F8BDD2B210B513029A1813049A1800F09C
:1026C00017F810BDD2B210B513029A1813049A1855
:1026D00000F001F810BD01E004C0091F0429FBD27D
:1026E0008B0701D50280801CC90700D0027070479B
:1026F00000290BD0C30702D00270401C491E0229DA
:1027000004D3830702D50280801C891EE3E70022E0
:10271000EEE70022DFE7000070B5054614460068CA
:102720000B1489B2021480B2D21846182146104602
:1027300000F0D4F809048A1906462146104600F034
:10274000CDF801E00919401E0029FBDB29603104A6
:10275000081870BDF0B5044687B00068544902906F
:1027600060680390A0680490E06801902069009080
:10277000656901208007281888427FD23C22002109
:1027800002A8FFF7C9FF3C22014603A8FFF7C4FFD8
:102790001822014604A8FFF7BFFF411E454A01A8C1
:1027A000FFF7BAFF0C22064668460021FFF7B4FF88
:1027B000414BB1004018401900267B440FE0511AEC
:1027C0006D1C022D0095019102D00C2D07D104E063
:1027D000820704D0491C019101E0401C0096009D35
:1027E000019A595D9142EADD012D06D11C2A04D1DE
:1027F000810702D0022101960091014646398B29BA
:102800003CD2019D00990022AE4602E09E5C751903
:10281000521C8A42FADB012902DD820700D06D1EBC
:10282000C217244B920F1218FF2692106E365A438D
:1028300083079B0F7343D2185219830700D1521E8E
:10284000182316463C275E43049BF61806933C2348
:102850005E43039B0593F318184E9B191E149BB2FD
:102860007E437B43029FDB19BC461F0CBF199BB202
:102870003E041E433B0C00E000E003D00020C043B8
:1028800007B0F0BD63462360059B6360069BA360B1
:1028900073465B1CE360216160610721501C00F0FE
:1028A0001DF80020E561C043A16120623046E7E7E2
:1028B00001000080B5050000A7FF0000A039CEFD93
:1028C000002203098B4273D3030A8B4258D3030BB4
:1028D0008B423CD3030C8B4221D312E003460B43C3
:1028E0007FD4002243088B4274D303098B425FD309
:1028F000030A8B4244D3030B8B4228D3030C8B4235
:102900000DD30902FF2212BA030C8B4202D312121A
:10291000090265D0030B8B4219D300E0090AC30BEF
:102920008B4201D3CB03C01A5241830B8B4201D39C
:102930008B03C01A5241430B8B4201D34B03C01A85
:102940005241030B8B4201D30B03C01A5241C30AFD
:102950008B4201D3CB02C01A5241830A8B4201D36E
:102960008B02C01A5241430A8B4201D34B02C01A58
:102970005241030A8B4201D30B02C01A5241CDD2FD
:10298000C3098B4201D3CB01C01A524183098B4248
:1029900001D38B01C01A524143098B4201D34B0131
:1029A000C01A524103098B4201D30B01C01A524194
:1029B000C3088B4201D3CB00C01A524183088B421B
:1029C00001D38B00C01A524143088B4201D34B0004
:1029D000C01A5241411A00D2014652411046704776
:1029E0005DE0CA0F00D04942031000D3404253407B
:1029F0009C46002203098B422DD3030A8B4212D33B
:102A00008901FC2212BA030A8B420CD3890192116C
:102A10008B4208D3890192118B4204D389013AD0A9
:102A2000921100E08909C3098B4201D3CB01C01A7E
:102A3000524183098B4201D38B01C01A5241430991
:102A40008B4201D34B01C01A524103098B4201D37F
:102A50000B01C01A5241C3088B4201D3CB00C01AEC
:102A6000524183088B4201D38B00C01A5241D9D204
:102A700043088B4201D34B00C01A5241411A00D285
:102A800001465241104663465B1001D34042002B81
:102A900000D54942704763465B1000D3404201B500
:102AA0000449002802DC491C084000E00846C046F2
:102AB000C04602BDFFFFFF7F7047704770470000B0
:102AC0000246C80FC00781434B0030B54B405B0046
:102AD0009B0D20D01923DB06C91801231B05994241
:102AE00020DB0324A40704251346AB400BD3002BA3
:102AF00004D1EB0613409B00E34204D40124640795
:102B0000002312195941FF231B0599420BD2C9001A
:102B10000143500F09E0CB0204D5014308030243EF
:102B200005D0054830BDFF21C905084330BD084622
:102B300007210905884330BD0000C07FF0B50C4671
:102B4000871A9C410D46861A9D4103D2C01BA141A4
:102B5000D21963410D0D1F0DC94EEC1BAE435CD065
:102B60007F057F0D0026002F51D02D05AC46A943CF
:102B7000DD020123ED0A1B051D4320231B1B24D46A
:102B80001746E740381871412F46E740CC199D4061
:102B90002818314661410C0D27D161449A4013D564
:102BA0000023401C594152000ED140084000012230
:102BB0004B005205D34207D305204007C14201D53F
:102BC000B04900E0B0493046F0BD6B00002A00D0AB
:102BD00001229A181F23203C1B1B01D5002302E071
:102BE000E540281871410C0DD7D00124240509199E
:102BF000C407CD0740084908E40F28436144002C6E
:102C0000D5D00024401C61419A40D0D1CDE76A055F
:102C1000520DD9D1C90FC907D5E79C4D4E000028E8
:102C200001D0012400E0002434195F00002A01D003
:102C3000012600E00026BE19954FAC420CD8AE42EA
:102C40000AD8B44206D001256D05EC42BCD010462E
:102C50001946F0BD9942FCD000203946F0BDF0B5D0
:102C60001FB40C460F46811A9F412546861A9D4186
:102C700006D20125ED076F40401ABC4152187B4136
:102C8000210D1E0D8D1BAC467D4D8D437ED07505EF
:102C90006D0D7CD00D05AE46AC431B031B0B794D6F
:102CA00052429D41202366469B1B14D31746F74092
:102CB000381800260090744160462F460741E419F9
:102CC00000989D402818664116D4714671189A40A4
:102CD00025D5012320E093182A466A415200002B93
:102CE00000D0521C1E23203E9B1B002B61DD354172
:102CF000EE1728186641E8D5001876415B1C9A400B
:102D000000D3401C4B05F3181524E34010D3002BCF
:102D100052D071467118D30FC01802D3491C05B0A8
:102D2000F0BD0123DB079A42F9D140084000F6E7E5
:102D300001225205B21801D1002853D00123CC0A38
:102D4000DB029943891E002A08D1020C03D0020C31
:102D50000004103902E00246002020390023550B00
:102D600005D112020823550B01D152010D23550C38
:102D700001D112011B1DD50C01D192009B1C150D18
:102D800001D152005B1C2025EE1A01E02CE022E06C
:102D90000546F54015439840CA1AE107691813051E
:102DA000C918002ABBDA032040070818C10FC90759
:102DB0000FE071466118B2E7F1074008084371104F
:102DC00071444A000CD001235B059A42A7D2C90F77
:102DD000C9070020A3E74905490D26D1002001E0DD
:102DE0000028F4D100219AE7284D6600002801D080
:102DF000012100E0002171185F00002A01D00126A6
:102E000000E00026BE19224FA94210D8AE420ED8CB
:102E1000B14208D001256D05E94206D01946A80245
:102E2000414010467BE79C4201D0214677E70020D5
:102E3000394674E710B50C465C4005D50124E4071B
:102E40006340FFF70CFF10BDFFF778FE10BD30B4F4
:102E50000C465C4004D50124E407634030BC6DE6B9
:102E600030BCFCE670B50124E40761400D465D40CE
:102E700002D4FFF763FE70BD6340FFF7F0FE70BD44
:102E8000FF0700000000F0FF0000F07F0000E0FFFF
:102E90000000F87FF0B5F94D0C091E092C402E40BA
:102EA0002F468BB0A7437DD0B543FCD0002E7AD0FF
:102EB000002CFCD00D465D40ED0F2543AC1BFF25DB
:102EC000AD0464190894C502440DC9022143500D94
:102ED000DC0204430120C00701430443D2020191F4
:102EE000200C110C00958C46010423468B430A915B
:102EF00061460904E24D8A430991010A7D4449195A
:102F00008039097805464D4301266D18F605751B75
:102F10006943C90C640B891C4C436418B5012C1B14
:102F2000250C2E04B4434C434D43210C69188909E8
:102F30000591009DE90701D00121C90704912C46A4
:102F400001996708CD072F434C08059DE10B4D43C0
:102F50002D0C29466646754302950D4645432E467F
:102F6000029D7D1BB44100950D465D4301942C0CE0
:102F70002F040D465543AE462D0C3D430295039458
:102F80007546049C2D04641B049406D2029C039D88
:102F9000641C002675410395029401AC70CC009F1F
:102FA0007D1B01E03EE162E1B44109040095079117
:102FB00001940599A4086143090C0C464443650B30
:102FC000E7040C4666467443A646640B3C430395EF
:102FD00002947446049DE4042C1B049406D2029CC3
:102FE000039D641C002675410395029401AC70CCCE
:102FF000009F7D1BB44101940C465C430095650F16
:10300000E7000C465443A646640F3C4303950294E4
:103010007446049DE4002C1B049406D2029C039D7C
:10302000641C002675410395029401AC70CC009F8E
:103030007D1BB441AE09AF06049DC900AD092F4305
:10304000049DA406AD060495079D344369180791B5
:10305000059DE10B4D432D0C2946664675430295AF
:103060000D4645432E46029D7D1BB44100950D46FD
:103070005D4301942C0C2F040D465543AE462D0C98
:103080003D43029503947546049C2D04641B0494EF
:1030900006D2029C039D641C002675410395029490
:1030A00001AC70CC009F7D1BB44101948C0506944B
:1030B000079C890A611800950791019C0599A4084D
:1030C0006143090C0D464543680BEF040D46644609
:1030D00065436C0B3C43049FED047D1BAC4602D260
:1030E0000025641C6841009E019D371B85410846F0
:1030F000584301950C46460FC5005443600F2843C2
:103100006546E4002C1B02D20025401C6E41019D47
:103110003F1AB5412846BD09800628438446A009C8
:10312000BF064E020699A40676180743079D0020A5
:1031300068410A99079019430020099B0090604656
:10314000FF1913434041E20F64003A43A44604468A
:10315000D71A8C41A04203D90120009020463A465C
:10316000C70F941840416246D20F22436446640060
:103170000494009CBE466400D71AA44604460297F5
:103180008C417746002F01D1A04204D96046401CF3
:103190008446029A2046C40FA64694184041049AD9
:1031A0000546D20F224364466400D31A8D4171460E
:1031B000002901D1A84202D928461A46641C1043AE
:1031C0000122002800D0164361020020079B8919C4
:1031D00004465C410223002C02DB4918134664417B
:1031E000089DCE0A2D145D194B056705E10A2C05D3
:1031F0000D1908993E43C9076940002B08D0934038
:1032000006D30022761C5141002B01D176087600AE
:103210001C4A002D43DB154241D0AA433FD0304623
:103220000BB0F0BD06180D464D41174C7642AC412F
:103230001AD395181C465C41134A6D42A24113D320
:10324000012252054C00D4420AD15C00D4420BD07A
:103250004B4002D592021143E2E749004908DFE7FB
:103260005940C90FC90718E000200849D8E70548A8
:1032700001420DD10342F7D0F2E700000000FF0742
:10328000A5F700000000F07F0000E0FF0000F87FDD
:10329000114859400143C01241400020C0E70123BA
:1032A000089A9B069A4205DC032252078918C90F27
:1032B000C907B5E7052252078918074A1143D212F8
:1032C0005140ADE770B515461C4602460B462846F0
:1032D0002146FFF7DFFD70BDFFFFFF7F30B50346DE
:1032E000CA02400D1043164D164C0A1502D0204359
:1032F000002A06DBAA1A002A12DDD040FF2A0BDCC6
:1033000030BD5205520D01D140004008AA1A07D421
:10331000D0404042FF2A01DD002030BD0028FCDD06
:103320004A00002B01D0012000E0002010180122EB
:103330005205D042F0D8C817C043604030BD0000ED
:103340001E0400000000008030B5420DCB0205468F
:103350001343C402081504D00122D20713430028E6
:103360001FDB134A121A11D4502A00D350221946D7
:10337000D1401546203D02D41846E84003E0202005
:10338000851A1846A840D440204330BD4A00002D7D
:1033900001D0012000E00020101801225205D04287
:1033A00002D90020014630BDC917C843C94330BD0A
:1033B0003E0400001F22030C02D10F22000402D0A1
:1033C000030E03D004E00020014670470002083AD3
:1033D000030F01D10001121F830F01D18000921E43
:1033E000002801DB4000521E120551184205C01290
:1033F000411810467047C10FC90700D04042012252
:1034000092071143D6E701218907D3E7F0B58B4C2A
:103410000F09254689B0BD437BD01D092646AE4322
:10342000FAD00E465E402740F60F3E43254071D04D
:1034300024012142FBD0FF24AD19A4042D1B0395C8
:1034400001252D05DB02DB0AC9022B43C90A2943EA
:103450001E010901040F130F050121431701880BF9
:10346000820391432D098C46A90B1E438A03954381
:10347000B30B9A0396433F09BA0B9403A7430296F2
:103480002E467E430497B6464E19D7190C46019630
:10349000544305977E43371B7646BF1B3601B6461D
:1034A000BE0B361900967646BC043719009C01D332
:1034B000641C00946400002F01D001263443029E56
:1034C000049F754366467E430496760034196E0069
:1034D00034190094029C019E1C196643751BAE466C
:1034E000069465464519059C05956C4359437546F8
:1034F0000891691A0191049E01465143A41B04914D
:10350000611A009C0791E10605D06109012211436F
:1035100002E072E06EE06109089D00272C0A2D068A
:103520006918049D7C412A0A2D066918019D624193
:10353000AC0DAD026D185441079A910D92025519C8
:103540006141029A644658435443069B059A5A4384
:10355000121A131B9A0E9B015B187A41010B00058E
:10356000C3185141220A200644195A419A4200D2F6
:10357000491C01204002814203D315230226F64351
:1035800002E014230326F6432020C51AA94017465B
:10359000AF40DA400A4320460399D8400914731813
:1035A00019055118039A3843D2075140AC4009D04D
:1035B0000122944006D30022401C5141002C01D12D
:1035C000400840001E4A934212D3012203989206FB
:1035D000904207DB0520400709181A480143C01232
:1035E000414004E0032040070818C10FC90700202C
:1035F00009B0F0BD0020F107FAE705180C464C4170
:1036000011486D42A04115D394181A465A410E48EC
:10361000644290410ED301204A004005824209D302
:103620005A00824206D35940C90F084AC9070020F0
:103630001143DDE700200649DAE700000000FF073C
:10364000FE070000FFFFFF7F0000E0FF0000F07FAB
:103650000000F87F0121C9050123411842001B0623
:10366000D3185B0E0AD0C1100722D2068918400772
:103670005242D14201D5520089187047090208D53B
:103680000146002A03D0C10FC90700207047104629
:103690007047420202D00020024970470721090505
:1036A0000143F4E70000F87FF0B5FF252D04C609BB
:1036B000C209FF2704462E400137CB093E4348404C
:1036C0002A402B400746002A6BD0002B69D0AA4223
:1036D00067D0AB4265D0002800DA32460125ED05FF
:1036E00029432C4309022002090AD21A4B0C7F24D9
:1036F000E31A434C000A7C44E35C7D242404121941
:1037000014145B00A218884201D3521C00E0400050
:1037100049420C465C4324115C43DB016415E31809
:10372000040A5C43C502200D0C4644436419250A73
:103730005D432303EC0C0D46654300030019EB18B1
:103740004C42A34201D35B18401CD4052018002B27
:1037500007D05B00C91804D3401C002901D14008E0
:1037600040003F2189048A4209D3002A08DC11065F
:10377000090F04D0032149074018C00FC007F0BD4E
:1037800001224100120689187F2252069142F6D288
:1037900005214907C84201D59010F0BDFF20C005A2
:1037A000F0BD002F00DA32461648AA4207D2AB42DB
:1037B00005D21902090E17D0F80FC007F0BDFF257A
:1037C00063002D06AB42F9D84900A942F6D8AB42B6
:1037D00001D1A942F2D0A94201D1002101E061004A
:1037E0004908D0050843F0BD1102090EFBD0FF20A7
:1037F0000243D005F0BD0A460146104654E70000DA
:103800002BF000000000C07F10B501469E2400028E
:10381000CA15A307002A02D01843002A04DBA21A03
:10382000002A0CDDD04010BD1206120E01D140005E
:103830004008A21A03D4D04040420028F3DDFF2202
:1038400048001206904201D9002010BDC817C0439D
:10385000584010BD1F22030C02D10F2200041CD0BF
:10386000030E01D10002083A030F01D10001121F1B
:10387000830F01D18000921E002801DB4000521E00
:10388000D2055118021251181922904004D3491C34
:10389000002801D14908490008467047C10FC907EF
:1038A00000D04042012292071143D3E7012189074A
:1038B000D0E7FFB504460D4681B024300090216862
:1038C000880604D51022E0699143216000E00120C0
:1038D000A84201DD471B00E000270498A1697A197E
:1038E0001018081AA0612078C00602D42046FEF7FE
:1038F000CFFC002608E003986268A168805D9047CD
:10390000206A401C761C206204988642F3DB2078F3
:10391000C0060AD52046FEF7BBFC06E06268A16837
:1039200030209047206A401C206238467F1E0028C5
:10393000F4DC07E000986268A168405D9047206A67
:10394000401C206228466D1E0028F3DC2046FEF74E
:10395000B5FC2078000602D5022005B0F0BD01209C
:10396000FBE70000FFB50C461E468FB003CA089067
:1039700009914F007D0D00D16D1E002108460020E9
:10398000C0460321099A89050840002A03DA82000B
:10399000801840080840800D01280A9002DD0020B0
:1039A000C0430A90089807430DD0F048F049281802
:1039B00048430714189800281DD07542291E1DDDA4
:1039C0000A9842421BE01898012802D000203021BA
:1039D00004E00020F24305E02154401CB042FBDB30
:1039E00030460022189B002121540F998B600A60F9
:1039F000486013B0F0BDBD1B6D1CDFE70A9A0029BB
:103A000000DA69420BA800F073FA0BAB07CB03ABEB
:103A100007C30899099800F0D7FA6B4607C3014617
:103A2000D4480918002D00910BDDD24903980A9A59
:103A300049424018002303A90390684600F034FD72
:103A400008E003990A9A0023081803A9039068461E
:103A500000F0D4FC6B4607C30004000C03D0002028
:103A6000C043410800E01046189A002A03D0002203
:103A7000009215461EE0751E05D400F0B7F93032ED
:103A800062556D1EF9D501220843079602D0002227
:103A90007F1C04E02078302801D100227F1E002AFC
:103AA000069787D01EE0112D07DA00F09FF930321B
:103AB00062556D1C02460A43F5D1084303D00098B5
:103AC000002819D00EE00021681E05E0235C625C2E
:103AD00063542254401E491C8142F7DBA81B401E40
:103AE00007950690079A18990020A0540F98079BF5
:103AF000069A81600CC07CE711260020189059E7D7
:103B0000D21DF0B50D460446D10893B0C90003C9D3
:103B10000C900D910CF0F0FF02460D98C00F01D0F3
:103B20002D2007E02068810701D52B2002E0400707
:103B3000C00F4001032A0F9001D0072A05DB03467E
:103B40002946204600F090F90EE12078800601D544
:103B5000E76900E006272846652D04D0662814D0C2
:103B6000672D69D12DE00020112F009001DB11237A
:103B700000E07B1C0CAA03A910A8FFF7F3FE119923
:103B8000002610987D1C0E9142E001203B460CAAB5
:103B9000C0070B900120009003A910A8FFF7E2FED8
:103BA000119D12981099002600280E9501D1781CBD
:103BB0000D18781B02D446427D1C761EE81B00902F
:103BC0003AE0012F00DA01270020112F009001DDDB
:103BD000112300E03B460CAA03A910A8FFF7C2FE80
:103BE00011993D46109800260E91217809070BD4B3
:103BF0000E99A94200DA0D4603A9012D04DD4A19E8
:103C0000203AD27F302A06D0B84201DA011D04DA08
:103C1000012100910FE06D1EEFE7002802DC8619FC
:103C20002D1A03E0411CA94200DD0D46801B401CFB
:103C300000900120C0070B902078000705D4009861
:103C4000A84202DB0020C043009069460020C872F1
:103C50000B98012102AF0337C907884225D0022003
:103C600010902B2011900B9800280BDA40420B90FB
:103C70002D20119006E00B9800F09BF830317F1E4C
:103C80000B9039701099481E00291090F3DC0B98A6
:103C90000028F0D111987F1E38702088000501D5CA
:103CA000452000E065207F1E387001A8C01BC01DA4
:103CB0000B900F98002800D0012041190098C017E0
:103CC00009180B980818A169081A401EA0612078ED
:103CD000C00602D42046FEF7DBFA0F98002805D074
:103CE0006268A1689047206A401C20622078C00664
:103CF00025D52046FEF7CCFA21E0002E07DB0E98F2
:103D0000B04204DD03A86268805DA16802E06268D9
:103D1000A16830209047206A761C401C20620098E1
:103D2000401E002800900AD100F05CF8C06862686C
:103D30000168405CA1689047206A401C20622846C8
:103D40006D1E0028D9DC07E062683878A1687F1C06
:103D50009047206A401C20620B99481E00290B9056
:103D6000F2DC2046FEF7AAFA032042E601FCFFFF40
:103D7000104D0000E1DFFFFF01694A1C0261087875
:103D8000704700B58FB0029100210591054901935C
:103D900079440391114604906846FEF703FB0FB087
:103DA00000BD0000E5FFFFFF0A681070521C0A60AA
:103DB000704701468008081A02091018020A1018F4
:103DC000020C1018C008820012185200891A01E073
:103DD000401C0A390A29FBD270470000004870478E
:103DE000C801002000487047E80100200B4670B56C
:103DF000024689078008084319469D08141AA941FC
:103E000025090807054308092C194841250A010618
:103E10000D43010A2C194141200C0D0428430D0CBF
:103E200000194D41002140194D41C0086907084360
:103E3000E908840F8D002543840024184D4124197E
:103E40006D41121BAB4107E00925ED432C115219BE
:103E500063410024401C61411C460A250026551B75
:103E6000B441F1D270BD0000F8B51F4604460123ED
:103E70000068DB02032601461840072A05DB0028FC
:103E800001D017A506E017A504E0002801D016A56B
:103E900000E016A5102081432160A069C01E002FFC
:103EA000A06101D0401EA0612046FEF7F1F9002F6D
:103EB00009D038466268A1689047206A401C206299
:103EC000C01C206206E0206AFAE762682878A168D0
:103ED0006D1C9047761EF8D22046FEF7EFF9F8BD2C
:103EE0004E414E006E616E00494E4600696E66009E
:103EF000F7B516468AB0334878446C4603467C339F
:103F0000C06F5A689B680DC42E487844763003AC65
:103F10000DC80DC43720C001081837211B30FEF72B
:103F2000DDFC05460C46803D1B3C02D56442012069
:103F300000E000200027099010E0E0070CD00C20E2
:103F400020497843794432464C3941186846012368
:103F500000F054FA6B4607C364107F1C002CECD1B0
:103F6000184F7F442E3F16E0E80712D02001C019F9
:103F70000EC80691089307920068F04201D1981983
:103F800008903246012306A903A800F037FA03ABD4
:103F900007C36D10641C002DE6D10998002806D0D7
:103FA00032466946012303A800F07EFA05E00123AA
:103FB0003246694603A800F021FA0A9B07C30DB0F8
:103FC000F0BD000078E80000034640000A4610B546
:103FD000400D0BD00121C9070F24A40200191C03B6
:103FE00064082143540D2143D20207E0002101203F
:103FF000F2E7D40F490021435200401E0029F8DAAD
:10400000DB0FDB07184310BDFFB50D46144685B026
:10401000486851680CF058FD00910190A868A168AB
:104020000CF052FD02910390A86861680CF04CFD01
:10403000029A12188242029201D2012000E000206E
:10404000019A0B18D2180028019202D08A4202D994
:1040500003E08A4201D2012000E000200099081804
:1040600000906868A1680CF02FFD029A1218824235
:10407000029201D2012000E00020019A0B18D21810
:104080000028019202D08A4202D903E08A4201D27A
:10409000012000E00020009908180090286821689D
:1040A00040004900400849084018FA49471814E000
:1040B00001994000C90F08430090019802994000FF
:1040C000C90F08430190029803994000C90F0843A3
:1040D0000290039840007F1E039000980028E7DAC2
:1040E0000898002801D0EC4E00E00026B74201DA23
:1040F000012000E00020002804902AD0F71BF806D9
:10410000C00E15D0029B2021091A039A8B401A4336
:104110000392029A019BC2408B401A430292019A79
:10412000009BC2408B4000991A430192C14000910C
:104130007B110DD06F460320C11A03D500218200E8
:10414000B95003E08A008100BA587A50401EF3D576
:10415000374603980299002800D0012001430898AF
:104160000291002808460CD0002800D001200199B7
:10417000019A490508430121D20AC902D2020192DB
:1041800000E001210E9B0122D207012B02D0002B5F
:1041900003D013E0002807D120E0904204D89042D9
:1041A0000CD1019B0B4209D0019B5918019105D1FB
:1041B0000099491C009101D17F1C009200280DD06C
:1041C000102108460020C0460498002806D00F9809
:1041D000002803D0082108460020C046286821682E
:1041E000019B009A4840C10F0598C90739430EC08A
:1041F00009B0F0BDFFB587B0099A089808995368CF
:104200009268406889689646002203931746944650
:10421000089A12685300099A5B0812685200520803
:104220009A1A9E4BD4180A9A002A01D0352200E02F
:10423000402206920022012315460492DB070593D3
:1042400024E0002D05D175460346039E4D1BB34166
:1042500009D375466646039B491B049D9841059BFF
:104260007519AC465F4163463B4308D0059B049EED
:10427000DD0776082E435B080496059301E0521E85
:10428000641EC50FED0749184041521C069B9A4217
:10429000D7DB002D04D17546039A6B1A824101D2F7
:1042A00003200CE0039A0B466B404240134303D0BB
:1042B000014303D0012002E0022000E0002061461B
:1042C00001910021009702910A99002905D06146C9
:1042D00040020143704B019102E0800700230290ED
:1042E0009C4201DA012000E0002007003AD01A1BAE
:1042F000D006C00E15D0029D2021019C091AC54090
:104300008C402543029C8C4000D001242543019C15
:104310000295009DC4408D4000992C430194C140FA
:10432000009154111DD06D460221002202290CD1AA
:104330000320001B07E0002804DB8600AE59002E96
:1043400000D00122401C0328F5DB081B02D58800A1
:104350002A5004E08000285810438A00A850491EC3
:10436000E3D51C460A98002802980CD0002800D0FB
:1043700001200199019A490508430121D20AC90285
:10438000D202019200E00121109B0122D207012BF1
:1043900002D0002B03D013E0002807D11FE0904289
:1043A00004D890420CD1019B0B4209D0019B5918B3
:1043B000019105D10099491C009101D1641C009222
:1043C00000280CD0102108460020C046002F06D03F
:1043D0001198002803D0082108460020C0460898FC
:1043E0000999019A009B006809684840C10F079825
:1043F000C907214382600AC00BB0F0BD00B585B08B
:10440000019300920A460146002302A8FFF7FCFD33
:1044100002A807C805B000BDFFB50A461F4685B013
:104420000799019301230091014602A8FFF7ECFDD3
:1044300002990398049ECA0F4900D20700920F22E6
:10444000490892028C1A0021002800DB0C46450026
:1044500013486D08844214D3079A002A04DA441ED4
:104460000026104DF64302E004460D460E4610218C
:1044700008460020C046002F03D004210846002033
:10448000C0462005E90A0843009908436905F20A75
:104490001143ADE602C0FFFF013C0000FF3F0000FA
:1044A000FF070000FFFFFF7F00B585B0019300927A
:1044B0000A460146002302A8FFF79CFE02A807C88F
:1044C000A8E7FFB50A461F4685B007990193012367
:1044D0000091014602A8FFF78DFE02990398049E01
:1044E000CA0F4900D20700920F22490892028C1A83
:1044F0000021002800DB0C46450011486D0884426D
:1045000014D3079A002A04DA441E00260D4DF64300
:1045100002E004460D460E46102108460020C04623
:10452000002F03D0042108460020C0462005E90AD8
:104530000843009908436905F20A114358E6000050
:10454000FF070000FFFFFF7F10B5FF231B0644009D
:104550009C421DD84C009C421AD80346124A0B4379
:1045600007D4401A02D3EFF3008010BDEFF30080B0
:1045700010BD081A03D3EFF30080904305E0EFF37A
:10458000008001219043C907084380F3008810BDD3
:104590000D231B041A4204D01146002000F086F8B7
:1045A00010BD00F09BF810BD000000907546FFF7AD
:1045B00015FCAE46050069465346C008C000854656
:1045C00018B020B5FDF71CFE60BCB64600260027DB
:1045D000C0C5C0C5C0C5C0C5C0C5C0C5C0C5C0C5B3
:1045E000403D490849008D46704710B50446C04615
:1045F000C0462046FDF7D8FD10BD000082078B079E
:104600009A423FD170B5920F0AD0032402780B78FA
:10461000401C491C002A33D09A4231D12042F5D1A6
:10462000214EF40104C808C9951B9543254018D1B3
:104630009A420FD104C808C9951B9543254010D153
:104640009A4207D104C808C9951B9543254008D153
:104650009A42E7D012BA1BBA01209A4200D24042D5
:1046600070BD12BA1BBA2DBA18241000E040190010
:10467000E140401A05D12E00E64002D1083CF4D1B9
:10468000D01A70BD02780B78401C491C002A09D052
:104690009A4207D102780B78401C491C002A01D0AD
:1046A0009A42EFD0D01A704701010101C80212D519
:1046B0004803400F002804D0C803C04301218840AC
:1046C0007047EFF300800001000903210907084348
:1046D00080F30088704700207047000010B5024842
:1046E00000F004F810BD00000000C07F10B50C46BB
:1046F0001107090F092904D00A290AD008290CD169
:1047000004E011460820FFF7D1FF06E0510606D568
:1047100001E0510601D50120C007214610BDD10698
:1047200007D501010909CC084907000E000604431A
:1047300009E0410F20024907000A0143200E00064C
:104740001D22D14101430846E7E700000149182036
:10475000ABBEFEE7260002007047000070B582B0D5
:104760000546002401940068816803220A40012A5A
:1047700005D10168C9070ED1C16809040BD481684D
:10478000214A11420AD0A86B10210143A963E86BAA
:1047900001242043E863204602B070BD81680122F5
:1047A0000A4382601948006819490AF081FF0190A4
:1047B0000198002817D00198401E01900198002808
:1047C00011D00198401E0190019800280BD001984B
:1047D000401E01900198002805D00198401E0190CC
:1047E00001980028E7D101F09BF806462868006888
:1047F000C007D0D101F094F8811B28680329F6D3B3
:104800000168C907F3D1BEE71700008074010020DA
:1048100040420F0070B586B01D46044681720B9968
:1048200001810A9822606060816103220492112252
:10483000029200260396019101A900F081FF2068F1
:1048400086610E496A1E42608660C16002F056FCB5
:10485000206802F0FBFC01F063F800097C2808D80E
:104860007D200401012000F09DFD01F059F8A042D7
:10487000F8D3142000F096FD06B070BDFFFF0000D5
:10488000B0B5044601F04CF860666020205A52280A
:104890000ED8214660312018A26E23681D686D6A0B
:1048A000AA1AC2720888401C08801868406AA0666C
:1048B000B0BD0000F0B58DB00292019105460746EB
:1048C0006037807A05286CD8012105918140342019
:1048D0000390014265D068682989816103220492AE
:1048E0000B9211220092099200240A94089108A9BF
:1048F00000F026FF6868298909048161052000F01D
:1049000051FD69682A898A61286800684462436A9F
:10491000132B08D8436A132B05D8436A132B02D8EC
:10492000436A142BF3D312048A614462416A042956
:1049300008D8416A042905D8416A042902D8416A85
:104940000529F3D3AC663C80446200F0E9FF0646DB
:1049500004980B903120000409900A94288908904B
:10496000686808A900F0ECFE00F0DAFF801B082858
:1049700017D800F0D5FF696E401A0228F4D3A87A40
:1049800005280ED8059981400398014209D02820B6
:10499000C043E97A6539814203D3297B6539814275
:1049A00011D201243C7568682989816103220B9228
:1049B0001122099200220A92089108A900F0C0FE73
:1049C00020460DB0F0BD06A807210E2204E0931C7E
:1049D0000E3A4E2A1A4628D2AB185B1E1B78233B90
:1049E000232BDED8AB5C1E46163E082E0CD8CBB26D
:1049F000059E9E400378B3430370CBB2002B0FD0CB
:104A0000491E002BE3D10EE0443B072BC9D8CBB2A3
:104A1000059E9E40037833430370CBB2002BEFD149
:104A20000721002BD3D1401CD1E706AA1678507875
:104A30000390811990780B18D1785B18DBB212794A
:104A40009A42AED100024018FEF730FF0F49FEF740
:104A50002BFEE8660199002900D008603002039916
:104A60004018FEF723FF0949FEF71EFE286702994A
:104A7000002900D008600598387568682989816127
:104A8000049A0B92009A09920A9495E7000020413B
:104A900080B5042000F048FE082000F045FE80BDEF
:104AA00080B5202000F040FE802000F03DFE012077
:104AB000C00300F039FE80BDF0B581B0044600F0BF
:104AC0002FFF0546264E3068C00715D13068800696
:104AD00001D5202030603068C00605D4306840071A
:104AE00002D4002001B0F0BD3068C00616D400200A
:104AF000316849071BD421E00320002C20D0611C21
:104B000020D13068C007E1D03068C007DED03068FF
:104B1000C007DBD03068C007F3D1D7E71148C169BF
:104B200002220A43C26110203168490706D50D49A7
:104B3000CA6901231343CB6104210843306001207B
:104B400001B0F0BD074600F0EBFE401BA04203D8C9
:104B50003068C007F7D1B9E7384601B0F0BDC046AC
:104B60000C200240180A0020F0B581B00E4607461E
:104B7000012528020090614C042F20D8B80001A123
:104B800008588746994B0008B54B0008A74B00080A
:104B9000AB4B00089D4B000801210CE00920C0062A
:104BA000E902002209E0042105E00920C0060022F4
:104BB000009902E002210022204600F0A8FE29030D
:104BC000204600F09FFE30706903204600F09AFEF8
:104BD0007070A903204600F095FEB070E9032046EE
:104BE00000F090FEF070444C4021204600F08AFE18
:104BF00030718021204600F085FE707120460099BA
:104C000000F080FEB0716902204600F07BFEF0717A
:104C1000042F1BD87F443F797F00BF4402120B0D45
:104C20000600012135480A460EE00920C006E902C7
:104C30002A4609E0042105E00920C0060122009966
:104C400002E0022101222D4800F061FE01B0F0BD1A
:104C5000F0B581B0CC00274B1D192A5401290091D1
:104C600005D0002908D120210122234802E0012299
:104C70001102224800F04BFE2A780920C4060227C0
:104C80002046394600F043FE6A7801262046314628
:104C900000F03DFEAA780821174C204600F037FEB0
:104CA000EA780421204600F032FE2A79204639466F
:104CB00000F02DFE6A792046314600F028FEAA79E0
:104CC0000F4C2046394600F022FEEA792046314654
:104CD00000F01DFE0098012805D0002808D12021F1
:104CE0000022FB4802E031020448002200F00FFEDF
:104CF00001B0F0BD000A0020000800480004004890
:104D000000140048F0B583B004463420205C01282C
:104D100002D1022003B0F0BD2646343601203070A7
:104D200021688A6803273A40012A05D10A68D20718
:104D30003DD1CA6812043AD481225200A36B934336
:104D40009A1CA263CA680292CA68BA43CA600190F8
:104D5000C0078A6802438A6000F0E2FD05462068C9
:104D60008168002913D500F0DBFD411B2068032971
:104D7000F6D381680029F3D5A06B102101430220EE
:104D80008143A16301980021317003B0F0BD029A04
:104D90003A40C1681143C160A06B01210143022068
:104DA0008143A16300200021317003B0F0BDA16BED
:104DB00020220A43A2630021317003B0F0BD00003D
:104DC000F0B583B0002702973422825C012A02D119
:104DD000022003B0F0BD054634350668B2685207BC
:104DE00017D4009701950B684A68012427469F4015
:104DF0003A4DAA4215D1B06AB843B0621846A043F2
:104E00001028009F3846019D08D1102B1BD0384830
:104E10001AE0816B20220A43826301202F7003B0C5
:104E2000F0BDB26A3A43B262C06A421E072A43D258
:104E30001846A0431028009F3846019DEED1102B44
:104E40000AD0A00509E0294825490A6802400A60FD
:104E500038462F7003B0F0BDE00521490A680243CF
:104E60000A60102B3846D9D11E4800681E490AF046
:104E70001FFC0A2141430291029800283846CDD0F8
:104E80000298401E02900298002811D00298401EFD
:104E90000290029800280BD00298401E02900298BF
:104EA000002805D00298401E029002980028E7D101
:104EB00038462F7003B0F0BD22079042B8D0726917
:104EC0000720024089689142B2D0726982437261C0
:104ED0000140706908437061AAE7C04601100000F4
:104EE000082701407401002040420F00FFFF7FFFB0
:104EF000FFFFBFFF0068006C70470000F0B581B095
:104F00000124002862D006462436816B002903D094
:104F1000816BC9060AD555E000213174C16305468D
:104F200000F094F82846816BC9064BD401688A6862
:104F3000520747D481225200836B93439A1C8263A9
:104F40008B6803221340012B05D10B68DB070ED1C0
:104F5000CB681B040BD4CB681824A34384681C4380
:104F6000CC6092070B69934342681A430A61CA688E
:104F7000344B1340CB60826A521E531E9A41120377
:104F8000037E9B03447EE4031C43837E5D03254331
:104F9000C46807692C431443BA1E55425541AD00FD
:104FA0002543327852002A43C47E012C14D1002BB1
:104FB0000FD0836B20241C438463C36B01241C43E8
:104FC000C46309E0816B10220A438263204601B06A
:104FD000F0BD01231B041A43C369FF24C234A3425A
:104FE00002D0046A22431A43CB681343CB60C36ADE
:104FF0005C1E072C21D24C690725AC434C612B4029
:105000004C691C434C61C9680F4B0B40934207D15C
:105010000024C463816B01220A4302218A43D4E73E
:10502000816B10220A4302218A438263C16B0124EF
:105030002143C163204601B0F0BD01242407A342EF
:10504000D9D0E0E71902FEFFE7FF3F8370B586B0D5
:1050500000250595049503950295019500681A4968
:10506000884201D006B070BD01214A02174843684A
:1050700013434360436813400093009A4A04036853
:1050800013430360036813400093009AC904026845
:105090000A430260006808400090009803950326C8
:1050A0000296902001900920C00601AC214600F034
:1050B00047FB03950296102001900548214600F019
:1050C0003FFB06B070BDC0460024014014100240F2
:1050D00000080048F0B581B00D4604464069082834
:1050E00001D1082704E02068C068C00764D10C27FC
:1050F00000F016FC06462168086838421CD00120E2
:105100004202A36B1343A363CA681205920F66D1D0
:10511000A27E002A63D10A68120760D58A68520706
:1051200054D4224638324B680C25AB434B60FF25E4
:1051300002351368AB4350E0681C39D0002D1BD1F9
:105140000868384221D008683842D8D10868384207
:105150001BD008683842D2D10868384215D0086898
:105160003842CCD1086838420FD008683842E7D0BE
:10517000C5E708683842C2D100F0D2FB801B216825
:10518000A842F6D908683842F3D1342000212154CE
:10519000A06B04210143A163032001B0F0BD0868A6
:1051A0003842ACD108683842A9D108683842A6D143
:1051B00008683842F3D0A2E7342000212154A06BC4
:1051C00020210143A163012001B0F0BDA26B202387
:1051D0001343A36322463C32E36B03431360227EF6
:1051E0000020002A01D001B0F0BD0C220A6001B0FD
:1051F000F0BD000070B501688A680221520713D41F
:105200003422825C012A0FD00546343501212970F1
:10521000427E012A0AD004460E46FFF79FFA024654
:1052200031462046002A01D0084670BD816B094AEC
:105230000A4001210902511881630021C1630068FD
:105240001C2202602970826804231343836008468D
:1052500070BDC046FEF0FFFFF0B581B004463420BB
:10526000205C012802D1022001B0F0BD2646343670
:105270000127377020688168490711D482680321AB
:105280000A40012A05D10268D20724D1C26812045B
:1052900021D4FF200230A16B8143383400203BE051
:1052A0008168490706D58168890703D4816810227F
:1052B0000A43826000F034FB054620688168490794
:1052C000DCD500F02DFB411B20680329F6D3816853
:1052D0004907F3D519E0826805231340012B14D147
:1052E0008268022313438360016000F019FB0546C6
:1052F00020688068C007CCD000F012FB411B2068FA
:105300000329F6D38168C907F3D0A06B10210143AC
:10531000A163E16B3C34384600223270394321608E
:1053200001B0F0BD10B5014620314A78022A12D1F1
:10533000026813680E24A343136013680124A34377
:105340001360C26B006C2346834053604C70002096
:1053500000220A7010BD04228263012000220A701C
:1053600010BDB0B5014620314A78022A16D1026834
:1053700013680E24A343136013680125AB43136025
:10538000C26B036C2C469C40546000240C704D7022
:10539000416B002900D088472046B0BD04218163BD
:1053A0000120B0BDB0B5044600F0BAFA0546601C55
:1053B00002D004480078241800F0B2FA401BA04242
:1053C000FAD3B0BD6C010020F0B583B00546BF4EE6
:1053D000307E012802D1022003B0F0BD00910120EF
:1053E000074630762C68BB48FFF766FB012C06D1D8
:1053F000002838460AD00021317603B0F0BD0028DD
:1054000019D038460021317603B0F0BD0020F0619C
:10541000254C206804252843206020684021014352
:105420002160AC48FFF748FB2168A94321600021B7
:10543000317603B0F0BD00200290C14300980160B6
:105440006C68A868C002001984423846D3D201951E
:10545000154F35460298F0613868022630433860AF
:105460007C6038684021014339609A48FFF724FB8B
:105470003968B143396000280FD10120C0022418D7
:10548000019948688968C902081884422E46E0D309
:1054900002980021317603B0F0BD00990C602E46D1
:1054A0000021317603B0F0BD10200240F0B587B086
:1054B000864D2C7E012C03D10224204607B0F0BD7E
:1054C000059206910490039301242C7600F028FAAB
:1054D00007467F4D2868C00708D07E4E00F020FAAE
:1054E000C01BB0426DD82868C007F7D12868800675
:1054F00001D5202028602868C006744B4AD428684B
:10550000400747D400200290D861686801273843DB
:10551000686006980599018000F002FA0446286840
:10552000C00708D06B4E00F0FBF9001BB0422ED82C
:105530002868C007F7D12868800601D52020286098
:105540002868C0060498614B00D5A4E02968490783
:1055500000D5A0E069680122914369600024012818
:1055600000D1AEE0DC616868019210436860059884
:10557000000C0699488000F0D3F906462868C00759
:1055800022D000F0CDF9801B52498842F6D903247D
:105590004E4B93E02868C00604D4002029684907D0
:1055A00008D40CE0D86902210143D9611020296890
:1055B000490704D5D9692143D961042108432860EA
:1055C0007FE00324414B7CE028688006039801D5E6
:1055D000202129602968C90604993C4B5BD42A68BC
:1055E000520758D46A68019EB2436A600222D243CD
:1055F000C91E914265D8049105920024DC61696856
:10560000314369600699888000F08AF90646286867
:10561000C00706D000F084F9801B2E498842F6D9D5
:10562000B5E72868800601D5202028602868C006D4
:105630000398264B2FD4296849072CD46968019A0E
:10564000914369600599049E8E423AD80024DC613A
:10565000696811436960000C0699C88000F060F920
:1056600006462868C00706D000F05AF9801B194981
:105670008842F6D98BE72868800601D5202028606B
:105680002868C006114B06D42868400703D4686810
:105690000199884314E02868C006029904D5D869A6
:1056A00002210143D96110212868400704D5D86937
:1056B0003843D8610420014329603C466868B843F8
:1056C000686000201876204607B0F0BD180A002058
:1056D0000C20024050C300000648C168090601D4EE
:1056E000002070470449016004490160C068C0B2ED
:1056F000C00970470420024023016745AB89EFCD04
:1057000080B5042805D0082809D1064801218170F8
:1057100080BD0348FFF7B4F802480121C17480BD81
:10572000880500207804002080B504490A680242F8
:1057300002D00860FFF7E4FF80BDC04614040140BA
:10574000F0B58CB005900C68002C00D1CBE0674818
:10575000059A824201D0052000E00320009020320B
:10576000019200231D460A9309910CE03243FA602E
:105770005B1C0C682046D8400A9A121D0A92AD1C88
:10578000002800D1AFE0012706979F403C400794D6
:10579000EED0029303242246AA40D0432B464D6804
:1057A0002E462640721E012A0495039313D80890B2
:1057B00005988268089C2240CC689C401443846011
:1057C000EA06D20F029B9A404468BC4307460898F9
:1057D00014437C6007E0032E059F029B03D12646FD
:1057E0000499039D1FE0FA68024009998C68039DA3
:1057F000AC401443FC60022E049914D11C21089083
:105800000A9801400F228A40DC08A400019806593A
:105810009643099F3A698A40324302510898796851
:10582000059F03260E40AE403A68024032433A607C
:105830008903890F09999BD02E480168069E314340
:105840000160016831400B910322194691430B9A84
:1058500029480491085808900922D20605989042D8
:1058600009D0264A904207D0254A9042009E204FF8
:1058700003D1022601E000261D4F0C220A980240A7
:105880000F2494400899A1431B48049C201896407B
:105890000E4306603C6809994868C20310D5079E0C
:1058A00034433C607C68820310D4B4437C60BC68A1
:1058B000C20210D4B443BC60FA68800211D555E727
:1058C000079EB4433C607C688203EED534437C6021
:1058D000BC68C202EED53443BC60FA68800200D5D1
:1058E00044E7B24343E70CB0F0BDC046000C0048AB
:1058F0000004014018100240080001400004004864
:105900000008004800690840411E88417047002A8D
:1059100002D0182281507047282281507047000021
:10592000014800687047C046A41F0020B0B5024679
:10593000034640335C780220202C17D11C78012CC0
:1059400014D024205870106802680124A243026019
:10595000220305689543056002680A4302600168F6
:10596000214301600020187020215970B0BDB0B5EE
:105970000246034640335C780220202C17D11C7865
:10598000012C14D024205870106802680124A2430E
:1059900002600F2212020568954309022943016043
:1059A0000168214301600020187020215970B0BDAA
:1059B000F0B581B0002822D005464035697800292D
:1059C00005D100212970044600F040FB2046242127
:1059D000697001680B68012293430B600F231B065B
:1059E00044689C430C618C68194B1C408C60846833
:1059F000C668012E06D1D60334438C600AE001202C
:105A000001B0F0BD2127BF023C438C60022E01D1C2
:105A1000D4024C604C680F4E26434E60CC681C404C
:105A2000CC60036944691C4383691B022343CB6038
:105A3000C369046A1C430C600B6813430B600021AC
:105A4000416420226A7001630846A97001B0F0BD6C
:105A5000FF7FFFFF00800002F0B585B005460446D9
:105A6000403466780220202E00D0DFE02678012E18
:105A700000D1DBE004910193029201200390207099
:105A8000FFF74EFF06462868816909040BD5039885
:105A9000C703FFF745FF801B192800D9B4E0286829
:105AA00081693942F5D1222161701021A170002253
:105AB0006A64019969850299696202926A63698DD3
:105AC000090AD449D44B09D0049A0A4047681F40B8
:105AD0001743584A3A434260FF220CE06A8D4768F8
:105AE0001F40049B0B40D1B20904C9183943504BE5
:105AF0000B43C84943600A9F2A85688D002857D008
:105B000004980840049011E0698D29854268C54BCE
:105B10001A40C9B20904114301225206001D049B18
:105B2000194311430160688D002841D02846394649
:105B3000324602F09DF9002858D1686A2968496AFE
:105B40000170688D401E6885686A401C6862288DF7
:105B5000401E2885698D0029E5D00004E3D128681E
:105B60008169090619D4791C0BD0002F53D0FFF797
:105B7000D7FE801BB84250D8286881690906F6D53F
:105B80000BE08169090608D48169090605D4816999
:105B9000090602D481690906F3D5698D090AB3D0D3
:105BA000FF21298541689F4A1140001D9E4AB6E7A2
:105BB000002F10D02868816989061AD428463946F2
:105BC000324602F089F8002810D1FFF7A9FE801BA9
:105BD000B842EFD918E028688169890609D4002104
:105BE0002846324602F078F800280BD0012005B094
:105BF000F0BD2021C16142688C4B1340436061704D
:105C0000029810E0FFF78CFE686C2021084368645E
:105C10006170039807E0FFF783FE686C202108435A
:105C200068646170012000212170A17005B0F0BD91
:105C3000002400820024FF81F0B585B005460646A9
:105C4000403674780220202C00D0E0E03478012C1B
:105C500000D1DCE0049100930192012002900396B0
:105C60003070FFF75DFE06462868816909040BD590
:105C70000298C703FFF754FE801B192800D9B2E031
:105C8000286881693942F5D12121039A5170102188
:105C9000917000226A640099698501996962019294
:105CA0006A63698D090AE24CE24B09D0049A2240EA
:105CB00047681F4017435A4A3A434260FF220BE0AD
:105CC0006A8D47681F40049B2340D1B20904C9185C
:105CD0003943524B0B4343600A9F2A85698D002943
:105CE00055D0049820400490049C10E0698D2985CB
:105CF0004268D34B1A40C9B209041143012253062A
:105D0000021D214319431160698D00293FD02846A7
:105D10003946324602F032F9002855D12868696ABE
:105D20000A7882626A8D521E6A85491C6962298DD1
:105D3000491E29856A8D002AE6D00904E4D18169CB
:105D4000090619D4791C0BD0002F54D0FFF7E8FDB9
:105D5000801BB84251D8286881690906F6D50BE046
:105D60008169090608D48169090605D48169090693
:105D700002D481690906F3D5698D090AB6D0FF21DD
:105D800029854168AE4A1140021DAE4BB9E7002F8C
:105D900010D028688169890619D4284639463246C8
:105DA00001F09AFF00280FD1FFF7BAFD801BB8421F
:105DB000EFD918E08169890609D4002128463246C6
:105DC00001F08AFF00280CD0012005B0F0BD202191
:105DD000C16142689C4B13404360039A5170019823
:105DE00012E0FFF79DFD686C202108436864039A68
:105DF0005170029808E0FFF793FD686C202108437A
:105E00006864039A5170012000211170917005B0EF
:105E1000F0BDC046FF0300000098007C0020008217
:105E20000020FF81009C00FC0000FF0100E800FE54
:105E3000F0B589B004460646403675780220202D1C
:105E400009D10E9D002D08D00F9F002F05D0079778
:105E50003778012F06D109B0F0BD012041026164FD
:105E600009B0F0BD039204930591012006903070B3
:105E7000FFF756FD014620688069000408910CD5A3
:105E80000698C703FFF74CFD0899401A192800D956
:105E9000C3E0206880693842F4D1109A22207070E3
:105EA0004020B0700027676465626763079860856B
:105EB0000792009201912046059D2946039A049B72
:105EC00001F062FF002803D03770069809B0F0BDDA
:105ED0000497608D000A564856490AD0054020684C
:105EE00042680A402F462A43544911434160FF202B
:105EF0000CE00540608D226853680B40C1B2090474
:105F000019432F4629434C4B0B435360079B208575
:105F10004B4D0FE0618D218542682A40C9B20904CA
:105F2000114301225206001D394311430160608D67
:105F300000285AD02068816949071BD4591C0DD00C
:105F4000002B68D0FFF7ECFC079B0899401A984299
:105F500063D8206881694907F4D50BE08169490756
:105F600008D48169490705D48169490702D4816948
:105F70004907F3D5616A406A0870608D401E6085EC
:105F8000606A401C6062208D401E2085618D002962
:105F9000CDD00004CBD12068816909061BD4591CDF
:105FA0000DD0002B37D0FFF7BBFC079B0899401A98
:105FB000984232D8206881690906F4D50BE08169DE
:105FC000090608D48169090605D48169090602D445
:105FD00081690906F3D5618D090A9BD0FF212185CE
:105FE00041682940001D174A9EE720461946089A35
:105FF00001F090FF0028069800D02CE720682021AF
:10600000C1614268104B1340436071700498307056
:10601000B07009B0F0BDFFF783FC606C202108432D
:106020006064717000203070B070069809B0F0BDE7
:10603000FF0300000098007C002400820024FF8100
:10604000009C00FC0000FF0100E800FEB0B586B037
:106050000021059104910391029101910068134A76
:10606000904201D006B0B0BD01256804104C2268F2
:1060700002432260226802400092042005900391AE
:106080001220029003200490400201900098092001
:10609000C00601A9FFF754FB6805A1680143A16090
:1060A000A16801400091009806B0B0BD00540040C6
:1060B000141002401A48007802490A681018086053
:1060C0007047C046A41F002010B5C24801681022C6
:1060D0000A4302600024204600F004F800F022F891
:1060E000204610BD70B504467D20C0000C4E3178AE
:1060F00009F0DEFA0146BF48006809F0D9FA00F05D
:10610000BBFF0125032C08D8002806D10025E84351
:1061100021462A4600F028F87460284670BDC04623
:106120006C01002082B0094801680122114301601E
:106130000168114001910199110742680A434260C8
:10614000406808400090009802B070471810024064
:10615000002805D41F210840012181400148016029
:106160007047C04600E100E0002805D40322034642
:1061700093430A4A9A1803E00C220240064BD218B5
:106180008007C00E8901C9B28140FF238340106897
:10619000984308431060704714ED00E000E400E00D
:1061A000F0B587B004468078C0073D4F4FD001203E
:1061B000059001073A1F10680840049006D1106846
:1061C00008431060106808400690069802920391F8
:1061D000344F3868C00512D4059806023868304339
:1061E0003860FFF79DFB05463868304207D1FFF75E
:1061F00097FB401B6428F7D9032007B0F0BD0320AC
:1062000001900002264F3968014012D062680240B6
:1062100091420ED00598000439683A6802433A600A
:106220003A6882433A6008461F4A10403860C807FF
:1062300026D138681C4908406168014339600498D8
:10624000002804D1029A10680399884310602168DD
:10625000C80704D1002089060AD407B0F0BD386908
:1062600003229043A26802433A6100208906F4D5D4
:10627000396910229143E2680A433A6107B0F0BDE0
:10628000FFF74EFB0546544E38688007D1D4FFF720
:1062900047FB401BB042F7D9019807B0F0BDC0469C
:1062A0002010024000700040FFFCFFFFF0B581B0FD
:1062B00000285FD00D460446464B1868012108406F
:1062C000854208D91A68012082432A431A601A6855
:1062D0000240AA425FD120688207534B10D5420783
:1062E00006D5072212021B6813434F4A13604E4B18
:1062F0001A68F0239A43A36813434B4A13604A4B2E
:10630000C0073AD1334A1168012001408D4205D2BD
:106310001168814311601168C9073CD1207840079A
:1063200006D50720000219688143E0680843186019
:1063300019680C220A403D48082A0CD18902090F2D
:106340003B4A545C996A0F220A403A49895C09F039
:10635000AFF9354B604319680906090F1F4A515CB4
:10636000C8402449086000242046FFF7BBFE2046B1
:1063700001B0F0BD012001B0F0BD6268181F0068D7
:10638000022A05D0012A08D18003084603D507E078
:106390008001084604D401B0F0BD80070846FAD554
:1063A000186803210091884310431860FFF7B8FA7A
:1063B0000646094F1C4B18680C210140606880009C
:1063C00081429FD0FFF7ACFA801BB842F2D9009807
:1063D00001B0F0BD00200240881300000E28010823
:1063E00004480068104909684905490F024A515C90
:1063F000C8407047740100201E28010810B50A49E2
:106400000A680C2313400948082B0BD19202120F83
:10641000074B9C5C896A0F220A400649895C09F097
:1064200047F9604310BDC0460410024000127A00D4
:106430004128010851280108F0B587B0074601201E
:10644000002F00D11FE104903878C007F04E059767
:106450000BD071680C200140042929D130688003D9
:1064600003D57868002800D1DFE03878800743D56D
:1064700070680007800F31D070680C210140082936
:1064800000D170683068F968002900D1BBE00121B3
:1064900008433060FFF744FA05463068800724D48B
:1064A000FFF73EFA401B0228F7D9032007B0F0BDE2
:1064B00071680140082902D17068C003CED47968A0
:1064C0003068002900D150E1052900D145E10129BA
:1064D00000D062E101210904084365E130688007CA
:1064E00003D5F868012800D09FE03068F821884380
:1064F0003969C900014331603878000723D43878FE
:10650000400735D43878C00600D49CE0706B0599FC
:1065100049694A1D00D18BE0012900D0D6E0042151
:1065200008437063706B012101437163FFF7F8F951
:106530000546706B80077ED4FFF7F2F9411B0320FC
:106540000229F6D99FE0706AF96900294AD0012131
:1065500008437062FFF7E4F90546706A8007CED4FD
:10656000FFF7DEF9401B0228F7D9032007B0F0BD82
:10657000012003900107F0690840029006D1F069FC
:106580000843F061F0690840069006980191A14F18
:106590003868C00512D40398040238682043386074
:1065A000FFF7BEF905463868204207D1FFF7B8F972
:1065B000401B6428F7D9032007B0F0BD0598816817
:1065C000306A954F002900D1A9E0052900D191E05A
:1065D000012900D192E0039988433062306A042196
:1065E00088438DE0012188437062FFF799F90546E1
:1065F000706A800783D5FFF793F9401B0228F7D90B
:10660000032007B0F0BD012188433060FFF788F90F
:1066100005463068800700D46EE7FFF781F9401B1C
:106620000228F6D9032007B0F0BD049807B0F0BDEA
:10663000042188437063706BF82188430599896948
:10664000C900014371630598046A002C1AD0706870
:106650000C210140082918D1012C049813D00120E5
:10666000030471680B40F26A059D6C6AA3420AD16B
:106670000F231A40EC6AA24205D19A041140AA6A7B
:10668000914200D1002007B0F0BD01200206316820
:106690000492914331604706FFF742F90546022C08
:1066A0000AD13068384200D190E0FFF739F9411B38
:1066B00003200229F5D9E6E730683842E2D0FFF737
:1066C0002FF9411B03200229F6D9DCE704210843F6
:1066D0007063706B012188437063FFF721F90546F1
:1066E000706B8007AFD5FFF71BF9411B0320022910
:1066F000F6D9C8E7042108433062306A0399084399
:106700003062FFF70DF90546306A80071BD4FFF7AA
:1067100007F9401BB842F7D9032007B0F0BD039931
:1067200088433062306A042188433062FFF7F8F80A
:106730000546306A800706D5FFF7F2F8411B0320B3
:10674000B942F6D99FE702980028059F00D0D9E604
:10675000F06901998843F061D4E601218A0410436D
:1067600030600904306808431EE001210A049043A8
:10677000306088043268824332604C04FFF7D0F8FE
:106780000546059F3068204200D16EE6FFF7C8F845
:10679000411B03206429F5D975E701210A049043C0
:1067A0003060890430688843306001204404FFF77A
:1067B000B7F805463068204200D056E6FFF7B0F83B
:1067C000401B6428F6D9032007B0F0BDF06A0F2102
:1067D0008843059AD16A0143F1623D200004716843
:1067E0008143906A0843516A01437160306804999B
:1067F00008433060FFF794F804463068384200D010
:1068000040E7FFF78DF8011B03200229F5D93AE78D
:10681000001002400070004088130000F0B585B001
:1068200000280AD005465C3541218E00416A0029C6
:1068300006D000210161142106E0012005B0F0BD61
:106840004168B14202D01C210022425000278762D9
:106850006978002905D100212970044600F05AF812
:106860002046022104950191697001680A6840235D
:106870009A4303910A60C268254B01259A422B4630
:1068800000D33B461B03ED0215430F27390202914B
:106890008D4201D0002585624568876835402124F6
:1068A000A4023C406419056901990D4025434169E2
:1068B000012421402943FC3687693E400E43C169CB
:1068C00038250D403543016A80260E402E43610372
:1068D000856A0D403543039E3560390C04250D4013
:1068E00002990A4013432B43416A10220A401A437B
:1068F000416B08230B4013437360E102F2698A4342
:10690000F26100210166084604994C7005B0F0BDA3
:106910000107000010B586B0002105910491039194
:10692000029101910068124A904201D006B010BD58
:10693000012002030F4B5C6814435C605C681440E8
:106940000094009A80041A6802431A601A68024090
:1069500000920591032004900391022002903820B8
:1069600001900098044801A9FEF7EAFE06B010BDA8
:10697000003001401410024000040048F0B587B018
:106980000E46044641208100254644356068884211
:1069900003D1A068002800D185E0287E012802D11B
:1069A000022007B0F0BD05920391049301272F76D2
:1069B000FEF7B6FF0690687E01285CD1002E3846AF
:1069C000059900D1DFE00029384600D1DBE00297CD
:1069D00004206876002222666980E2872664298086
:1069E000A287A263E264226507200002E168012316
:1069F000059081421E4600D9164636031F032268C1
:106A00005068B84380195060D803A368834208D106
:106A1000106840239843106001208003136883436B
:106A2000136010684006049E039F03D4106840233F
:106A3000034313606A880598401C81423ED2002AB5
:106A40006CD0701C0CD11DE0007B216C0870206C98
:106A5000401C20646888401E6880688800285DD0DB
:106A600020688168C907EFD1FEF75AFF0699401ADE
:106A7000B042F2D33CE0022085E0FEF751FF688887
:106A800000284BD020688168C907F6D0007B216CB4
:106A90000870206C401C20646888401E68806888EC
:106AA0000028EFD13AE00420687600932046314672
:106AB0001346324600F070F907B0F0BD002A2DD021
:106AC000701C0BD11BE0216CC0680880881C2064FE
:106AD0006888401E6880688800281FD02068816808
:106AE000C907F0D1FEF71CFF0699401AB042F2D355
:106AF000032047E0FEF714FF688800280ED02068C6
:106B00008168C907F6D0216CC0680880881C2064A1
:106B10006888401E688068880028F0D16068B842A4
:106B20000CD1A0680121CA03904202D08902884298
:106B300004D120680168402291430160204631461B
:106B4000069A01F0D1FC002805D0206E20210843D0
:106B50002066216613E06068B84210D1A068012168
:106B6000CA03904202D08902884208D10320410220
:106B700020463246069B01F007FC0028E5D1206E36
:106B8000411E8841029F002129766F7607B0F0BD33
:106B9000F0B587B0044606464436307E012802D15F
:106BA000022007B0F0BD1546049105930127377602
:106BB000FEF7B6FE0390707E01285FD1049A002A8A
:106BC000384600D1E1E0002D384600D1DDE00297E3
:106BD0000327777600202066E587A587A2632064D7
:106BE0003080E06420650190708020680121CA0334
:106BF000A368934207D1026840239A430260890345
:106C000002680A4302600168490603D40168402211
:106C10000A430260009761684A424A416B1E59422A
:106C200059411143E2685B4B9A423ED30029039FCE
:106C3000049A06D01188C160901CA063E08F401EAA
:106C4000E087E08F002871D00598401C0BD11CE034
:106C5000A16B0A88C260881CA063E08F401EE08799
:106C6000E08F002862D0206881688907F0D4FEF7A1
:106C700057FEC01B05998842F2D33FE0022084E012
:106C8000FEF74EFEE08F002850D02068816889070B
:106C9000F6D5A16B0A88C260881CA063E08F401EF5
:106CA000E087E08F0028F0D140E00029039F04999D
:106CB00007D009780173A06B401CA063E08F401ED1
:106CC000E087E08F002831D00598401C0CD11DE0F2
:106CD000A16B09780173A06B401CA063E08F401E7C
:106CE000E087E08F002821D0206881688907EFD4F1
:106CF000FEF716FEC01B05998842F2D3029F00984A
:106D000043E0FEF70DFEE08F00280FD02068816879
:106D10008907F6D5A16B09780173A06B401CA063AD
:106D2000E08F401EE087E08F0028EFD10320049021
:106D3000C1022046059D2A463B4601F025FB00285E
:106D40000FD1204629463A4601F0CEFB002808D153
:106D50000498410220462A463B4601F015FB0028D4
:106D600004D0206E2021084320662166A0680028F8
:106D700007D1019806902068C16806918068069046
:106D80000698206E411E8841029F00223276777657
:106D900007B0F0BD01070000F0B585B00446074616
:106DA0004437387E012802D1022005B0F0BD1D46CF
:106DB0000292039101263E76FEF7B2FD3246064668
:106DC000797E012900D0ABE003980028104600D15D
:106DD00048E102980028104600D143E1002D1046FA
:106DE00000D13FE10192787E042801D00520787619
:106DF000002323667D80E587E1689E4A012000919B
:106E00009142024600D31A460496160301032068F5
:106E100042688A4391194160029921643D80039937
:106E2000A163E3642365A5870168490603D401686B
:106E300040220A4302600A9E61684A424A41691E32
:106E40004B424B41134300998A4A914279D3002B1C
:106E500007D0039A1188C160901CA063E08F401E88
:106E6000E0870125701C32D101E0FEF759FDE08F6B
:106E7000002803D17888002800D1CFE020688168FD
:106E800089070DD5E18F00290AD0012D08D1A16B0A
:106E90000A88C260891CA163E18F491EE187002531
:106EA0008168C907E1D079880029DED0216CC068EB
:106EB0000880881C20647888401E78800125D4E7EB
:106EC000FEF72EFD0499401AB04200D3C8E0E08FCF
:106ED000002803D17888002800D19FE020688168CD
:106EE00089070DD5E18F00290AD0012D08D1A16BAA
:106EF0000A88C260891CA163E18F491EE1870025D1
:106F00008168C907DCD079880029D9D0216CC06894
:106F10000880881C20647888401E78800125CFE78F
:106F200001924120820063680220934200D098E0E1
:106F3000042900D095E0A1680029019A00D143E717
:106F400090E0002B08D0039909780173A06B401CD6
:106F5000A063E08F401EE0870125701C33D101E063
:106F6000FEF7DEFCE08F002802D17888002855D09B
:106F70002068816889070FD5E18F00290CD0012D89
:106F80000AD1A16B09780173A06B401CA063E08F4C
:106F9000401EE087206800258168C907E0D0798815
:106FA0000029DDD0007B216C0870206C401C20641F
:106FB0007888401E78800125D2E7FEF7B1FC04995D
:106FC000401AB0424CD2E08F002802D178880028C5
:106FD00024D02068816889070FD5E18F00290CD063
:106FE000012D0AD1A16B09780173A06B401CA0632D
:106FF000E08F401EE087206800258168C907DCD04B
:1070000079880029D9D0007B216C0870206C401C45
:1070100020647888401E78800125CEE70320039005
:10702000C10220463246049D2B4601F0ADF90028EE
:107030000FD1204631462A4601F056FA002808D1E1
:1070400003984102204632462B4601F09DF9002864
:107050000DD0206E2021084320662166012000E02B
:107060000320019A002139767A7605B0F0BD002020
:10707000F7E7C04601070000401E010E01D00120C5
:1070800070470749074A5060074803680B400321CF
:10709000890759180160002090600721116070472E
:1070A000FFFFFF0010E000E020ED00E070477047B8
:1070B00010B53C22825C012A01D1022010BD02469B
:1070C0003C3202235370006843687024A3430C6869
:1070D0001C43836844607E4CA04205D07D4CA04296
:1070E00002D07D4CA04204D18024A34349681943B7
:1070F0008160002010700121517010BDB0B50028D2
:1071000024D005463C356978002905D10021297035
:10711000044600F05FF820460221697001680C689F
:107120006D4B994202D06A4A914211D17022944328
:1071300082682243224CA1420EDC654CA14214D04D
:10714000224CA14211D099420FD037E00120B0BDAE
:1071500022461B4CA142F0DD5E4B994205D0194BF3
:10716000994202D0184B994228D103231B029A431B
:10717000036913438022934382691A430A60C268F9
:10718000CA6242688A62124A8A180A23DA41072AC6
:1071900006D801239340E122134201D040690863DD
:1071A00001204861A872A870E87028716871A87100
:1071B000E8712872687268700020B0BD1346D9E784
:1071C000FF3F0140004801400044014000200040D2
:1071D00000D4FEBF10B584B00068F44988421ED0C8
:1071E000184988420FD03C49884229D10120C00269
:1071F0001549091F0A6802430A60096801400391A2
:10720000039804B010BD10480168102211430160BA
:1072100000681040019001981124032109E00A48F8
:10722000026802210A430260006808400290029846
:10723000102400222046FEF797FF2046FEF788FF25
:1072400004B010BD001000401C1002403D21415C04
:10725000012918D101463D3102220A700068D34944
:10726000884205D01B49884202D01B49884204D17C
:10727000816807220A40062A03D0016801220A43D6
:1072800002600020704701207047C0463D21415CEC
:1072900001291BD101463D3102220A700068C268F3
:1072A00001210A43C260C14A904205D0094A904276
:1072B00002D0094A904204D1826807231340062B6A
:1072C00002D002680A430260002070470120704724
:1072D0000004004000400140002C0140F0B53C2279
:1072E000825C012A01D10220F0BD02463C32022319
:1072F0005370504E3346773B0468A0681840A06036
:107300000D6800234F2D1FDC1F2D36DD202D38D0BA
:10731000302D36D0402D00D087E0206A256A012626
:10732000B5432562A569F026B543CE6836012E43E4
:10733000A6610A25A843496801432162A068472144
:107340000143302081436AE06F2D26DD0120470391
:10735000BD4257D00003854218461AD0702D64D123
:10736000A06830404D688E68C9682E4309023143D9
:107370000143A160A068772150E0002D01D0102DBD
:1073800053D1A06870218843054307202843A0609B
:107390001846137001215170F0BD502D1BD0602D87
:1073A00043D11020C043256A054025620F252D03D7
:1073B000A669AE43CD682D033543266AA561A02595
:1073C000AE434968090131432162A16867250D4335
:1073D0000540A56024E0206A256A0126B5432562A0
:1073E000A569F026B543CE6836012E43A6610A256D
:1073F000A843496801432162A06857210143202026
:1074000081430CE0A56835404E688F68C9683743F2
:10741000090239432943A1608003A1680143A160A7
:107420001846137001215170F0BD01201370012125
:107430005170F0BDFF00FFFF7047B0B504468020DB
:10744000C54320680169890717D5C168890714D524
:1074500029467E310161012121778069800703D0AF
:107460002046FFF7E9FF05E0204600F08AF82046B5
:1074700000F088F80020207720680169490718D5B6
:10748000C168490715D529467C3101610221217760
:1074900080698005800F03D02046FFF7CDFF05E00F
:1074A000204600F06EF8204600F06CF800202077AF
:1074B00020680169090717D5C168090714D529464D
:1074C0007831016104212177C069800703D020460B
:1074D000FFF7B2FF05E0204600F053F8204600F029
:1074E00051F80020207720680169C90618D5C168C5
:1074F000C90615D529467031016108212177C06977
:107500008005800F03D02046FFF796FF05E0204658
:1075100000F037F8204600F035F80020207720688A
:107520000169C90709D0C168C90706D029467F315A
:107530000161204600F028F820680169090607D596
:10754000C168090604D505612046FFF7AFFD206834
:107550000169490609D5C168490606D52946403161
:107560000161204600F024F820680169890607D5EA
:10757000C168890604D5603505612046FFF797FD8F
:10758000B0BD70477047000080B500680749884269
:1075900000D080BD07F01CFA07F0A0FB07F088FBC5
:1075A000012007F085F905F08FFB80BD0004004045
:1075B0007047704770470000F0B587B00121069111
:1075C000CD022F462F370268D3691F40203F791E16
:1075D0008F4116682021344604910C40614261417C
:1075E0003943976845D0059029460F310B4206D0A4
:1075F000D749314001200740791800D088E0102495
:1076000030462040474247410598006E0128069DBC
:1076100036D0D806069937D40029059F38D0802067
:107620003040414241411806069A00D50A46002AD8
:1076300000D1C2E04022164071427141580600D587
:1076400006910698002800D0B5E0EFF310800121E4
:1076500081F3108839680B6893430B6080F31088BE
:107660000020B8660498B867384600F033FB07B0CE
:10767000F0BD416E002900D19DE0884707B0F0BD04
:107680003D46D8060699C7D529460029059FC6D18B
:107690003D46583514629068400600D594E06A88EB
:1076A00029886888002800D185E0914200D182E0D5
:1076B000EFF31080012383F3108809256D013E68E4
:1076C00006923A463768AF43376080F31088EFF38D
:1076D000108083F310881568AE689E43AE6080F317
:1076E00010880498D067002050661066EFF3108071
:1076F00083F3108813681D68A5431D6080F310880C
:107700000698081A81B21046FFF753FF07B0F0BD84
:1077100002900002304041424141D807069800D013
:1077200008460146059880300390002909D1029847
:107730001062039800682946029D28430D4603996C
:10774000086098070BD5002F09D00220106203981B
:1077500000680190042101980143039801605807D3
:107760000BD5002F09D00420106203980068019007
:10777000022101980143039801602743794279412E
:107780001807069F00D50F46002F05D1082010626C
:10779000039F3968014339600298800606407142B0
:1077A00071412B42069E059F57D1002E039E58D053
:1077B000306800285DD107B0F0BDB96E0029FAD05D
:1077C0003846884707B0F0BD3A6F1068436898B2F2
:1077D0000028F0D029888842EDD26B80906920285B
:1077E00033D0EFF31080012181F310885A4A203200
:1077F0003B681E6816401E6080F31088EFF310800F
:1078000081F310883A6893688B43936080F3108803
:10781000EFF3108081F310883A6893684026B343F1
:10782000936080F310880498F86700203866EFF3BF
:10783000108081F3108839680A68A2430A6080F3D7
:107840001088386FFDF76EFD29886888081A81B2A4
:107850003846FFF7AEFE07B0F0BD0E46002E039E81
:10786000A6D115623068049908433060306800285A
:10787000A1D00498034061426141002B00D00691E1
:107880000698002805D1796E002902D0384688472D
:107890003A68306828230340906840210840C018A7
:1078A00006D13846FFF786FE0020306007B0F0BDF5
:1078B000EFF31080029D85F31088092252013B6886
:1078C0001C6894431C6080F31088EFF3108085F3EC
:1078D00010883A689368AB43936080F31088386EE1
:1078E00001280BD1EFF31080029A82F310883A68D6
:1078F00013681024A343136080F310880498F8677A
:107900000020386678663868806840061AD5EFF33C
:107910001080029A82F310883A6893688B439360D0
:1079200080F31088396F00290CD00A484863084654
:10793000FDF717FD002800D13DE7386F416B884700
:1079400007B0F0BD3846FFF735FE07B0F0BDC046C2
:1079500020010004B7860008DFFEFFFFF0B583B00A
:10796000002819D0044607467437806F002804D1D8
:1079700000203870204600F059F82420A0672068C5
:1079800001680125A9430160204600F041FF00285D
:1079900006D0284603B0F0BD0125284603B0F0BD4F
:1079A000606A002802D0204600F01CFE0126F0028A
:1079B00021684A6882434A60886808229043886048
:1079C0000868304308600025FD60FDF7A9FF034605
:1079D0002068016809070FD513480090710500223F
:1079E0002046029300F0C0FF002803D0032528465C
:1079F00003B0F0BD2068029B006840070CD50A4820
:107A00000090B1050022204600F0AEFF002803D010
:107A10000325284603B0F0BD2020A067E0673D7035
:107A20002566284603B0F0BDFFFFFF01B0B586B064
:107A30000024059404940394029401940068654919
:107A4000884201D006B0B0BD0120800413498A6885
:107A500002438A608A6802400092009A0A680243E0
:107A60000A600968014000910420059003940220F7
:107A7000029003200490800201900098084801A918
:107A8000FDF75EFE1D25284621462246FEF76CFBCB
:107A90002846FEF75DFB06B0B0BDC046141002409C
:107AA00000040048F0B584B0C36F0227202B12D128
:107AB000012300290CD0002A0AD001242603836860
:107AC000B3420CD1CB070AD00369002B07D1234660
:107AD000184604B0F0BD3B46184604B0F0BD05465C
