:020000040800F2
:10200000106D0020B92100089D930008F98A00088E
:1020100000000000000000000000000000000000C0
:10202000000000000000000000000000F196000821
:1020300000000000000000009F930008F3960008D5
:10204000CB21000800000000CB210008CB210008B4
:10205000CB210008CB210008596200086962000802
:1020600000000000CB210008CB210008CB21000894
:10207000CB210008CB210008CB2100080000000084
:102080007D9700088D970008CB210008CB21000820
:10209000CB210008CB210008CB210008CB21000870
:1020A000CB210008CB210008CB210008CB21000860
:1020B000CB210008699E000800F002F800F050F8FB
:1020C0000CA030C8083824182D18A246671EAB464D
:1020D00054465D46AC4201D100F042F87E460F3EC8
:1020E0000FCCB6460126334200D0FB1AA246AB46BF
:1020F0003343184708D7010028D7010000230024E4
:1021000000250026103A01D378C1FBD8520700D32E
:1021100030C100D50B60704710B5662902D11BF0A5
:10212000DBF810BD642902D100F058F910BD782900
:1021300002D100F089F910BD002010BD1FB502F0DA
:1021400075F80400002000211AF0F2FF401C6060C6
:10215000002000211AF0D6FFE0601FBD10B510BDB1
:1021600002F08CFC1146FFF7E9FF11F063FF02F06B
:10217000B3FC03B4FFF7F2FF03BC02F035FD00002F
:1021800070B505460C46164602E00FCC0FC5103E52
:10219000102EFAD2082E02D303CC03C5083E042E1B
:1021A00007D301CC01C5361F03E021782970641CD8
:1021B0006D1C761EF9D270BD07488047074800475E
:1021C000FEE7FEE7FEE7FEE7FEE7FEE70448054917
:1021D000054A064B7047000079970008B9200008AF
:1021E000103B0020106D0020103D0020103D00200D
:1021F00010B5202A04DB0146203A9140002010BD92
:10220000914020239C1A0346E3401943904010BD9F
:1022100010B5202A04DB0846203AD040002110BD2A
:102220000B462024D340D040A21A914008431946BF
:1022300010BD4343514330B55C18010C130C0D46DF
:1022400092B25D4380B251432C19054655430A0CA6
:1022500009044D1962415843010C000440195141D1
:1022600030BDFEB5054610460C46184373D0AE4649
:102270008C460020AD1A01469C4167D36646002774
:1022800001243D46B61A9D4102D313463A46212405
:10229000654676462F04360C3E432D0CB61A9D41FA
:1022A00004D3150C1B042B431204103465467646E8
:1022B0002F06360A3E432D0AB61A9D4104D3150E49
:1022C0001B022B4312020834654676462F07360957
:1022D0003E432D09B61A9D4104D3150F1B012B4314
:1022E0001201241D65467646AF07B6083E43AD0889
:1022F000B61A9D4104D3950F9B002B439200A41C5A
:1023000065467646EF0776083E436D08B61A9D414E
:102310001AD392185B41641C16E000187646654695
:102320004941B71A9D410191009009D36046B11A05
:1023300098418E468446009801990025401C6941C9
:10234000DD0752082A435B08641EE6D572466346E1
:1023500003B0F0BDFFE700200146C046C0462A4654
:102360002346F5E70FB41CB5074B06AA7B44694624
:102370000090059801F021FE0020694601F030FE32
:102380001CBC08BC04B01847711C000070B50446A2
:1023900085690068C10601D5302600E02026C00707
:1023A00007D070BD62683046A1689047206A401C23
:1023B00020626D1EF6D570BD70B504468569007843
:1023C000C00707D170BD6268A16820209047206ACD
:1023D000401C20626D1EF6D570BD0000F7B50025CB
:1023E00075291068009914A611D0C046C04600286F
:1023F00002DA404211A608E0009909688A0701D56F
:102400000FA602E0490704D50EA6012501E0C0464B
:10241000C046009F0024243704E001F01FFE303145
:102420003955641C0028F8D12B46324621460098C5
:1024300001F059FBFEBD0000000000002D0000006F
:102440002B0000002000000070B504460D46214618
:102450001068C046C0462188090502D50F4A7A4453
:1024600002E00E4A7A440E3223460021243305E06E
:1024700006070009360F965D5E54491C0028F7D107
:1024800020780023000705D5702D03D0002901D046
:1024900002231132204601F026FB70BD42CF01001D
:1024A000F3B50446002081B020622046E1688847E9
:1024B00000287DD0252802D06268A16883E0454FBE
:1024C00000257F442046E16888472028064608DB2F
:1024D000312E06D2B81920380078002801D00543E3
:1024E000F0E7A80701D5042085430020E0610746F6
:1024F000A0612A2E0AD0304608F09CFA002827D086
:10250000B8000019303E0090866119E00298BA00C8
:10251000121902C8916102902046E1688847012F94
:10252000064617D1E06900281FDA202085431CE009
:1025300000980A21806948430099801930388861E1
:102540002046E1688847064608F074FA0028EFD173
:10255000012F0AD02E2E08D12046E1688847064672
:10256000202005437F1C022FC3DBA069002803DA6B
:102570004042A06101200543E80701D010208543B7
:10258000002E24D030464138192803D80120C0023B
:1025900005432036204625603146029A1546FFF74E
:1025A000BBFD00280CD0012807D0ED1DE80800E095
:1025B0000DE0C0000830029077E72D1D029574E70A
:1025C00062683046A1689047206A401C6CE7206A28
:1025D000FEBD000006CF010070B5064601F074FA9A
:1025E0000468054630460A22002101F0FFFC2C60F9
:1025F00070BD10B5431E5C785B1C002CFBD105E060
:102600000C78491C1C705B1C002C03D0521EF7D2A6
:102610000021197010BD034610B50B439B070FD165
:10262000042A0DD308C810C9121FA342F8D018BA43
:1026300021BA884201D9012010BD0020C04310BD3D
:10264000002A03D0D30703D0521C07E0002010BD9E
:1026500003780C78401C491C1B1B07D103780C78AD
:10266000401C491C1B1B01D1921EF1D1184610BD04
:10267000034670B502460B439B070FD10E4CE60193
:1026800000E008C208C91D1B9D433542F9D0D9B2EC
:102690001170521C00290DD01B0AF8E70B78491C59
:1026A0001370521C002B05D00B78491C1370521C60
:1026B000002BF3D170BD00000101010130B5441CB5
:1026C00003E00178401C00290DD08107F9D10B4BA4
:1026D000DD0104C8D11A91432940FAD0001B0A0633
:1026E00003D0C01E30BD001B30BD0A0401D0801EC7
:1026F00030BD0902FCD0401E30BD000001010101C7
:102700000346F0B50B439B072DD1244DEF01042A5E
:1027100029D308C810C95E1B9E43121F3E4017D024
:10272000D8B2E1B2401A3106014310D198B2A1B239
:10273000401A310401430AD118022102000A090A91
:10274000401A3102014302D1180E210E401AF0BD89
:10275000A342DCD018BA21BA884201D90120F0BDC9
:102760000020C043F0BD002A01D10020F0BD037855
:102770000C78401C491C002B0DD0A3420BD1521EDB
:1027800009D003780C78401C491C002B03D0A342CD
:1027900001D1521EEBD1181BF0BD00000101010157
:1027A000F8B5042A2CD3830712D00B78491C037088
:1027B000401C521E83070BD00B78491C0370401C31
:1027C000521E830704D00B78491C0370401C521E14
:1027D0008B079B0F05D0C91ADF002023DE1B08C919
:1027E0000AE0FFF7CDFCF8BD1D4608C9FD401C46B8
:1027F000B4402C4310C0121F042AF5D2F308C91AA2
:10280000521EF0D40B78491C0370401C521EEAD4AF
:102810000B78491C0370401C012AE4D4097801702C
:10282000F8BDD2B210B513029A1813049A1800F02A
:102830000EF810BD01E004C0091F0429FBD28B076C
:1028400001D50280801CC90700D0027070470029A2
:102850000BD0C30702D00270401C491E022904D3CA
:10286000830702D50280801C891EE3E70022EEE781
:102870000022DFE770B50546144600680B1489B2E4
:10288000021480B2D21846182146104600F0D0F843
:1028900009048A1906462146104600F0C9F801E0ED
:1028A0000919401E0029FBDB29603104081870BD9E
:1028B000F0B5044685B00068524904906068029003
:1028C000A0680390E068019020690090656901208C
:1028D0008007281888427BD23C22002104A8FFF7F9
:1028E000C9FF3C22014602A8FFF7C4FF1822014697
:1028F00003A8FFF7BFFF411E434A01A8FFF7BAFF35
:102900000C22064668460021FFF7B4FF3F4BB1009A
:102910004018401900257B4411E0511A019100999B
:10292000491C0229009102D00C2908D105E0810739
:1029300005D00199491C019101E0401C00950099C6
:10294000019A595C9142E8DD0099012906D11C2ABF
:1029500004D1810702D00221019500910146463938
:102960008B2935D2019D009A002102E05E5C751929
:10297000491C9142FADB012A02DD810700D06D1E5D
:10298000C117214A890F0918FF2389106E3351435B
:102990008207920F5A4389184A19810700D1521EA3
:1029A0001821039B51433C26049FC9183C235943DB
:1029B000029BC918164BCB1819149BB27143734371
:1029C000DB191E0C71189BB20E041E43090C03D0B8
:1029D0000020C04305B0F0BD2760029961600399F3
:1029E000A1600199491CE1600099216160610721A2
:1029F000501C00F01DF80020E561C043A161206279
:102A00003046E7E701000080B5050000BECC0100BC
:102A1000A039CEFD002203098B4273D3030A8B42F7
:102A200058D3030B8B423CD3030C8B4221D312E0CF
:102A300003460B437FD4002243088B4274D303091F
:102A40008B425FD3030A8B4244D3030B8B4228D3C0
:102A5000030C8B420DD3FF22090212BA030C8B42E6
:102A600002D31212090265D0030B8B4219D300E086
:102A7000090AC30B8B4201D3CB03C01A5241830B0B
:102A80008B4201D38B03C01A5241430B8B4201D3BB
:102A90004B03C01A5241030B8B4201D30B03C01AE4
:102AA0005241C30A8B4201D3CB02C01A5241830A5E
:102AB0008B4201D38B02C01A5241430A8B4201D38D
:102AC0004B02C01A5241030A8B4201D30B02C01AB7
:102AD0005241CDD2C3098B4201D3CB01C01A52411E
:102AE00083098B4201D38B01C01A524143098B42A7
:102AF00001D34B01C01A524103098B4201D30B0190
:102B0000C01A5241C3088B4201D3CB00C01A5241B4
:102B100083088B4201D38B00C01A524143088B4279
:102B200001D34B00C01A5241411A00D20146524112
:102B3000104670475DE0CA0F00D04942031000D331
:102B40004042534000229C4603098B422DD3030A86
:102B50008B4212D3FC22890112BA030A8B420CD396
:102B6000890192118B4208D3890192118B4204D3BF
:102B700089013AD0921100E08909C3098B4201D33F
:102B8000CB01C01A524183098B4201D38B01C01A79
:102B9000524143098B4201D34B01C01A52410309F0
:102BA0008B4201D30B01C01A5241C3088B4201D39F
:102BB000CB00C01A524183088B4201D38B00C01A4C
:102BC0005241D9D243088B4201D34B00C01A524123
:102BD000411A00D20146634652415B10104601D3B0
:102BE0004042002B00D54942704763465B1000D33A
:102BF000404201B50020C046C04602BD7047704744
:102C0000704700000246C80FC00781434B0030B533
:102C10004B405B009B0D20D01923DB06C918012314
:102C20001B05994220DB0324A40704251346AB406F
:102C30000BD3002B04D1EB0613409B00E34204D4DA
:102C400001246407002312195941FF231B059942EF
:102C50000BD2C9000143500F09E0CB0204D5014358
:102C60000803024305D0054830BDFF21C9050843CC
:102C700030BD084607210905884330BD0000C07FEC
:102C8000F0B50C46871A9C410D46861A9D4103D229
:102C9000C01BA141D21963410D0D1F0DC94EEC1B84
:102CA000AE435CD07F057F0D0026002F51D02D054F
:102CB000AC46A943DD020123ED0A1B051D43202379
:102CC0001B1B24D41746E740381871412F46E740B4
:102CD000CC199D402818314661410C0D27D1614423
:102CE0009A4013D50023401C594152000ED1400890
:102CF000400001224B005205D34207D30520400774
:102D0000C14201D5B04900E0B0493046F0BD6B008A
:102D1000002A00D001229A181F23203C1B1B01D53A
:102D2000002302E0E540281871410C0DD7D00124A2
:102D300024050919C407CD0740084908E40F2843B2
:102D40006144002CD5D00024401C61419A40D0D170
:102D5000CDE76A05520DD9D1C90FC907D5E79C4DFA
:102D60004E00002801D0012400E0002434195F0047
:102D7000002A01D0012600E00026BE19954FAC4282
:102D80000CD8AE420AD8B44206D001256D05EC42FB
:102D9000BCD010461946F0BD9942FCD000203946FF
:102DA000F0BDF0B51FB40C460F46811A9F41254671
:102DB000861A9D4106D20125ED076F40401ABC419D
:102DC00052187B41210D1E0D8D1BAC467D4D8D4350
:102DD0007ED075056D0D7CD00D05AE46AC431B0352
:102DE0001B0B794D52429D41202366469B1B14D3F9
:102DF0001746F740381800260090744160462F4669
:102E00000741E41900989D402818664116D4714680
:102E100071189A4025D5012320E093182A466A416B
:102E20005200002B00D0521C1E23203E9B1B002B67
:102E300061DD3541EE1728186641E8D50018764166
:102E40005B1C9A4000D3401C4B05F3181524E3404B
:102E500010D3002B52D071467118D30FC01802D373
:102E6000491C05B0F0BD0123DB079A42F9D14008A7
:102E70004000F6E701225205B21801D1002853D0D4
:102E80000123CC0ADB029943891E002A08D1020CD7
:102E900003D0020C0004103902E002460020203961
:102EA0000023550B05D112020823550B01D1520105
:102EB0000D23550C01D112011B1DD50C01D192001F
:102EC0009B1C150D01D152005B1C2025EE1A01E060
:102ED0002CE022E00546F54015439840CA1AE10768
:102EE00069181305C918002ABBDA0320400708181F
:102EF000C10FC9070FE071466118B2E7F10740083A
:102F00000843711071444A000CD001235B059A42BA
:102F1000A7D2C90FC9070020A3E74905490D26D14B
:102F2000002001E00028F4D100219AE7284D660036
:102F3000002801D0012100E0002171185F00002A63
:102F400001D0012600E00026BE19224FA94210D868
:102F5000AE420ED8B14208D001256D05E94206D037
:102F60001946A802414010467BE79C4201D0214609
:102F700077E70020394674E710B50C465C4005D56C
:102F80000124E4076340FFF70CFF10BDFFF778FE54
:102F900010BD30B40C465C4004D50124E407634006
:102FA00030BC6DE630BCFCE670B50124E40761403E
:102FB0000D465D4002D4FFF763FE70BD6340FFF72E
:102FC000F0FE70BDFF0700000000F0FF0000F07F82
:102FD0000000E0FF0000F87FF0B5F94D0C091E0974
:102FE0002C402E402F468BB0A7437DD0B543FCD05C
:102FF000002E7AD0002CFCD00D465D40ED0F25430D
:10300000AC1BFF25AD0464190894C502440DC90228
:103010002143500DDC0204430120C0070143044357
:10302000D2020191200C110C00958C46010423461C
:103030008B430A9161460904E24D8A430991010AD2
:103040007D4449198039097805464D4301266D189C
:10305000F605751B6943C90C640B891C4C43641845
:10306000B5012C1B250C2E04B4434C434D43210CBD
:10307000691889090591009DE90701D00121C90757
:1030800004912C4601996708CD072F434C08059DF4
:10309000E10B4D432D0C29466646754302950D46BE
:1030A00045432E46029D7D1BB44100950D465D4370
:1030B00001942C0C2F040D465543AE462D0C3D4378
:1030C000029503947546049C2D04641B049406D257
:1030D000029C039D641C002675410395029401AC7B
:1030E00070CC009F7D1B01E03EE162E1B441090428
:1030F0000095079101940599A4086143090C0C46B9
:103100004443650BE7040C4666467443A646640BCD
:103110003C43039502947446049DE4042C1B0494E0
:1031200006D2029C039D641C0026754103950294FF
:1031300001AC70CC009F7D1BB44101940C465C43F4
:103140000095650FE7000C465443A646640F3C43C8
:10315000039502947446049DE4002C1B049406D24B
:10316000029C039D641C002675410395029401ACEA
:1031700070CC009F7D1BB441AE09AF06049DC90011
:10318000AD092F43049DA406AD060495079D344365
:1031900069180791059DE10B4D432D0C29466646A4
:1031A000754302950D4645432E46029D7D1BB44155
:1031B00000950D465D4301942C0C2F040D4655439C
:1031C000AE462D0C3D43029503947546049C2D0498
:1031D000641B049406D2029C039D641C0026754166
:1031E0000395029401AC70CC009F7D1BB441019407
:1031F0008C050694079C890A611800950791019C2B
:103200000599A4086143090C0D464543680BEF047A
:103210000D46644665436C0B3C43049FED047D1BE7
:10322000AC4602D20025641C6841009E019D371BFC
:1032300085410846584301950C46460FC500544346
:10324000600F28436546E4002C1B02D20025401C79
:103250006E41019D3F1AB5412846BD0980062843AD
:103260008446A009BF064E020699A40676180743B5
:10327000079D002068410A99079019430020099B87
:1032800000906046FF1913434041E20F64003A4347
:10329000A4460446D71A8C41A04203D901200090CD
:1032A00020463A46C70F941840416246D20F224347
:1032B000644664000494009CBE466400D71AA44689
:1032C000044602978C417746002F01D1A04204D9D1
:1032D0006046401C8446029A2046C40FA6469418B5
:1032E0004041049A0546D20F224364466400D31A33
:1032F0008D417146002901D1A84202D928461A46BB
:10330000641C10430122002800D0164361020020F3
:10331000079B891904465C410223002C02DB4918F3
:1033200013466441089DCE0A2D145D194B056705AF
:10333000E10A2C050D1908993E43C9076940002B85
:1033400008D0934006D30022761C5141002B01D1B6
:10335000760876001C4A002D43DB154241D0AA4373
:103360003FD030460BB0F0BD06180D464D41174C0E
:103370007642AC411AD395181C465C41134A6D4203
:10338000A24113D3012252054C00D4420AD15C0061
:10339000D4420BD04B4002D592021143E2E74900E0
:1033A0004908DFE75940C90FC90718E0002008495C
:1033B000D8E7054801420DD10342F7D0F2E70000FB
:1033C0000000FF0799C301000000F07F0000E0FF4C
:1033D0000000F87F114859400143C01241400020CD
:1033E000C0E70123089A9B069A4205DC0322520794
:1033F0008918C90FC907B5E7052252078918074A76
:103400001143D2125140ADE770B515461C46024635
:103410000B4628462146FFF7DFFD70BDFFFFFF7F0B
:1034200030B50346CA02400D1043164D164C0A151E
:1034300002D02043002A06DBAA1A002A12DDD0405F
:10344000FF2A0BDC30BD5205520D01D1400040086F
:10345000AA1A07D4D0404042FF2A01DD002030BD27
:103460000028FCDD4A00002B01D0012000E00020F4
:10347000101801225205D042F0D8C817C04360404E
:1034800030BD00001E040000000000800346CA0298
:10349000400D10B510430A1504D00124E407204361
:1034A000002A05DB0A4CA21A04D4D040FF2A00DD12
:1034B000002010BD4A00002B01D0012000E00020B8
:1034C000101801225205D042F2D8C817C04310BDCF
:1034D0001E04000030B5420DCB0205461343C40262
:1034E000081504D00122D207134300281FDB134A1A
:1034F000121A11D4502A00D350221946D140154631
:10350000203D02D41846E84003E02020851A1846E2
:10351000A840D440204330BD4A00002D01D00120F6
:1035200000E00020101801225205D04202D90020EC
:10353000014630BDC917C843C94330BD3E04000031
:103540001F22030C02D10F22000402D0030E03D06D
:1035500004E00020014670470002083A030F01D141
:103560000001121F830F01D18000921E002801DB91
:103570004000521E120551184205C0124118104653
:103580007047C10FC90700D0404201229207114382
:10359000D6E701218907D3E7F0B58B4C0F09254603
:1035A00089B0BD437BD01D092646AE43FAD00E46F6
:1035B0005E402740F60F3E43254071D02401214252
:1035C000FBD0FF24AD19A4042D1B039501252D0567
:1035D000DB02DB0AC9022B43C90A29431E01090188
:1035E000040F130F050121431701880B8203914338
:1035F0002D098C46A90B1E438A039543B30B9A03EE
:1036000096433F09BA0B9403A74302962E467E4386
:103610000497B6464E19D7190C46019654430597A0
:103620007E43371B7646BF1B3601B646BE0B3619A6
:1036300000967646BC043719009C01D3641C0094A4
:103640006400002F01D001263443029E049F75437D
:1036500066467E430496760034196E003419009451
:10366000029C019E1C196643751BAE460694654676
:103670004519059C05956C43594375460891691A8F
:103680000191049E01465143A41B0491611A009CC0
:103690000791E10605D061090122114302E072E0C1
:1036A0006EE06109089D00272C0A2D066918049D0B
:1036B0007C412A0A2D066918019D6241AC0DAD02BC
:1036C0006D185441079A910D920255196141029A61
:1036D000644658435443069B059A5A43121A131BD7
:1036E0009A0E9B015B187A41010B0005C3185141EA
:1036F000220A200644195A419A4200D2491C01204C
:103700004002814203D315230226F64302E014232C
:103710000326F6432020C51AA9401746AF40DA40D9
:103720000A4320460399D840091473181905511803
:10373000039A3843D2075140AC4009D0012294404B
:1037400006D30022401C5141002C01D1400840000A
:103750001E4A934212D3012203989206904207DB3D
:103760000520400709181A480143C012414004E0EF
:10377000032040070818C10FC907002009B0F0BD99
:103780000020F107FAE705180C464C4111486D423C
:10379000A04115D394181A465A410E4864429041EC
:1037A0000ED301204A004005824209D35A008242CA
:1037B00006D35940C90F084AC90700201143DDE765
:1037C00000200649DAE700000000FF07FE070000BE
:1037D000FFFFFF7F0000E0FF0000F07F0000F87FA8
:1037E00070B505464800440D124B0020002C0AD04D
:1037F000634008D09A4206DA6642B24203DD1205FF
:103800004019514170BD002C08D0002B09D0C90FC0
:10381000C907002AF6DB084A114370BDC90FC90762
:1038200070BD28460A03104302D00020034970BD32
:10383000284670BDFF0700000000F07F0000F87F01
:103840000121C9050123411842001B06D3185B0E54
:103850000AD0C1100722D206891840075242D1422D
:1038600001D5520089187047090208D50146002A7F
:1038700003D0C10FC90700207047104670474202AD
:1038800002D0002002497047072109050143F4E7EF
:103890000000F87FF0B5FF252D04C609C209FF27F7
:1038A00004462E400137CB093E4348402A402B4076
:1038B0000746002A6BD0002B69D0AA4267D0AB42E2
:1038C00065D0002800DA32460125ED0529432C4356
:1038D00009022002090AD21A4B0C7F24E31A434C36
:1038E000000A7C44E35C7D242404121914145B0058
:1038F000A218884201D3521C00E0400049420C4605
:103900005C4324115C43DB016415E318040A5C4347
:10391000C502200D0C4644436419250A5D43230368
:10392000EC0C0D46654300030019EB184C42A34212
:1039300001D35B18401CD4052018002B07D05B0076
:10394000C91804D3401C002901D1400840003F2180
:1039500089048A4209D3002A08DC1106090F04D021
:10396000032149074018C00FC007F0BD01224100E4
:10397000120689187F2252069142F6D20521490784
:10398000C84201D59010F0BDFF20C005F0BD002F4A
:1039900000DA32461648AA4207D2AB4205D21902D3
:1039A000090E17D0F80FC007F0BDFF2563002D06E4
:1039B000AB42F9D84900A942F6D8AB4201D1A9429D
:1039C000F2D0A94201D1002101E061004908D005EF
:1039D0000843F0BD1102090EFBD0FF200243D005C1
:1039E000F0BD0A460146104654E7000077BB0100CF
:1039F0000000C07F0102C21504D00123DB07194378
:103A0000002A0ADB9E239A1A02D40846D040704747
:103A1000FF2241001206914201D900207047C017D1
:103A2000C04370471F22030C02D10F2200041CD098
:103A3000030E01D10002083A030F01D10001121F49
:103A4000830F01D18000921E002801DB4000521E2E
:103A5000D2055118021251181922904004D3491C62
:103A6000002801D14908490008467047C10FC9071D
:103A700000D04042012292071143D3E70121890778
:103A8000D0E7000010B5FF22C30D134009D05A4003
:103A900007D0914205DA5C42A14202DDC90508184F
:103AA00010BDC40FE407002B06D0002A06D0002961
:103AB00002DBFF20C0050443204610BD4102FCD0BC
:103AC000004810BD0000C07F00487047B03A002099
:103AD00010B5FFF7F9FF006810BD10B50446FFF7F9
:103AE000F3FF046010BDFFB504460D4681B02430DD
:103AF00000902168880604D51022E0699143216076
:103B000000E00120A84201DD471B00E000270498E7
:103B1000A1697A191018081AA0612078C00602D489
:103B20002046FEF733FC002608E003986268A1688F
:103B3000805D9047206A401C761C20620498864273
:103B4000F3DB2078C0060AD52046FEF71FFC06E00E
:103B50006268A16830209047206A401C2062384685
:103B60007F1E0028F4DC07E000986268A168405DD1
:103B70009047206A401C206228466D1E0028F3DC16
:103B80002046FEF719FC2078000602D5022005B079
:103B9000F0BD0120FBE700007047FFB50C461E4654
:103BA0008FB003CA089009914F007D0D00D16D1EA2
:103BB000002108460020C0460321099A89050840D3
:103BC000002A03DA8200801840080840800D01288E
:103BD0000A9002DD0020C0430A90089807430DD0E8
:103BE000F048F149281848430714189800281DD0B8
:103BF0007542291E1DDD0A9842421BE018980128D3
:103C000002D00020302104E00020F24305E02154DE
:103C1000401CB042FBDB30460022189B002121549F
:103C20000F998B600A60486013B0F0BDBD1B6D1C1E
:103C3000DFE70A9A002900DA69420BA800F0D0FBFE
:103C40000BAB07CB03AB07C30899099800F034FC12
:103C50006B4607C30146D5480918002D00910BDDBE
:103C6000D24903980A9A49424018002303A90390B5
:103C7000684600F091FE08E003990A9A00230818AC
:103C800003A90390684600F031FE6B4607C30004A9
:103C9000000C03D00020C043410800E01046189AF1
:103CA000002A03D00022009215461EE0751E05D49E
:103CB00000F0C0FA303262556D1EF9D5012208437A
:103CC000079602D000227F1C04E02078302801D122
:103CD00000227F1E002A069787D01EE0112D07DAEA
:103CE00000F0A8FA303262556D1C02460A43F5D145
:103CF000084303D00098002819D00EE00021681E68
:103D000005E0235C625C63542254401E491C8142DE
:103D1000F7DBA81B401E07950690079A189900200C
:103D2000A0540F98079B069A81600CC07CE711266F
:103D30000020189059E7D21DF0B50D460446D10871
:103D400093B0C90003C90C900D9106F0D7F9024653
:103D50000D98C00F01D02D2007E02068810701D504
:103D60002B2002E04007C00F4001032A0F9001D032
:103D7000072A05DB03462946204600F099FA0EE1A2
:103D80002078800601D5E76900E006272846652DE2
:103D900004D0662814D0672D69D12DE00020112FA2
:103DA000009001DB112300E07B1C0CAA03A910A8E2
:103DB000FFF7F3FE1199002610987D1C0E9142E04A
:103DC00001203B460CAAC0070B900120009003A9DC
:103DD00010A8FFF7E2FE119D129810990026002806
:103DE0000E9501D1781C0D18781B02D446427D1C1B
:103DF000761EE81B00903AE0012F00DA0127002030
:103E0000112F009001DD112300E03B460CAA03A90D
:103E100010A8FFF7C2FE11993D46109800260E919A
:103E2000217809070BD40E99A94200DA0D4603A99F
:103E3000012D04DD4A19203AD27F302A06D0B8423B
:103E400001DA011D04DA012100910FE06D1EEFE798
:103E5000002802DC86192D1A03E0411CA94200DD6E
:103E60000D46801B401C00900120C0070B9020785D
:103E7000000705D40098A84202DB0020C043009050
:103E800069460020C8720B98012102AF0337C907A9
:103E9000884225D0022010902B2011900B980028EA
:103EA0000BDA40420B902D20119006E00B9800F0A9
:103EB000D5F830317F1E0B9039701099481E0029BB
:103EC0001090F3DC0B980028F0D111987F1E387009
:103ED0002088000501D5452000E065207F1E387050
:103EE00001A8C01BC01D0B900F98002800D0012016
:103EF00041190098C01709180B980818A169081AE9
:103F0000401EA0612078C00602D42046FEF73EFA8B
:103F10000F98002805D06268A1689047206A401C6D
:103F200020622078C00625D52046FEF72FFA21E032
:103F3000002E07DB0E98B04204DD03A86268805DA6
:103F4000A16802E06268A16830209047206A761C70
:103F5000401C20620098401E002800900AD100F00A
:103F600065F9C06862680168405CA1689047206A92
:103F7000401C206228466D1E0028D9DC07E06268DC
:103F80003878A1687F1C9047206A401C20620B99FA
:103F9000481E00290B90F2DC2046FEF70DFA0320A4
:103FA00042E6000001FCFFFF104D0000E1DFFFFFD3
:103FB00001694A1C02610878704700B58FB0029110
:103FC000002105910549019379440391114604901C
:103FD0006846FEF765FA0FB000BD0000E5FFFFFF81
:103FE0000A681070521C0A6070470000F7B50F464F
:103FF0000026009C2578641C002D05D000F00EF9E9
:104000000068405DC007F5D12B2D02D02D2D18D0B2
:10401000641E3946029A204600F08EF9002F04D023
:104020003968A14201D10099396071050224002943
:104030000BDA4042002803DDFFF746FD0460A007CD
:10404000FEBD012080020643E3E70028F8DAFFF70F
:104050003BFD04600048FEBDFFFFFF7F0146800876
:10406000081A02091018020A1018020C1018C008C9
:10407000820012185200891A01E0401C0A390A29EC
:10408000FBD27047F8B5224C4E00069DA6420AD8D6
:10409000A64201D1002806D15E00A64203D8A6425E
:1040A0000AD1002A08D00D24240425422CD0294608
:1040B000002000F0C1FCF8BD0C461C430CD4994212
:1040C00002D0EFF30080F8BD904202D0EFF3008001
:1040D000F8BDEFF30080F8BD09242407E5008B420A
:1040E00006D0EFF30080A043591A06D2284304E01B
:1040F000101A05D3EFF30080A04380F30088F8BDC9
:10410000EFF30080A043F1E7009500F0ADFCF8BDAF
:104110000000E0FFF0B53D4B02460C461C4000207D
:10412000002C63D03A4D8B4366D000296BDB0B0D1E
:104130001D05A94301252D0529430124FD33E34035
:1041400001D392184941FF3381339C468B02940D71
:104150000121234389074C42920200271B198C102E
:104160005D1A04D42D1B02D42B4665004919921800
:104170005B416408F4D15C1A08D40125ED07EE1701
:104180005519744102D42A462346491C94185B41B0
:10419000012292071D46E61B8D4106D4B61A8541C1
:1041A00003D42B46550034467F1924195B4152082D
:1041B000802AEFD1234300D0022338460A22D04080
:1041C00001D3012213438A0510436246890A12056E
:1041D0008918002B09D00122D34002D30022401CB1
:1041E0005141002B01D140084000F0BD0B031343A7
:1041F00007D0C90FC907F0BD0803104303D1002938
:1042000001DB1046F0BD00202946F0BD0000F07F24
:104210000000F87F00487047B03A002010B500F069
:1042200005F8001D10BD00BF098F01000048704750
:10423000D03A00200B4670B5024689078008084333
:1042400019469D08141AA9412509080705430809BC
:104250002C194841250A01060D43010A2C19414138
:10426000200C0D0428430D0C00194D41002140196C
:104270004D41C00869070843E908840F8D002543B4
:10428000840024184D4124196D41121BAB4107E0F5
:104290000925ED432C11521963410024401C614152
:1042A0001C460A250026551BB441F1D270BD000002
:1042B000F8B51F46044601230068DB0203260146C9
:1042C0001840072A05DB002801D017A506E017A52E
:1042D00004E0002801D016A500E016A510208143B7
:1042E0002160A069C01E002FA06101D0401EA06106
:1042F0002046FEF74BF8002F09D038466268A168C7
:104300009047206A401C2062C01C206206E0206AA0
:10431000FAE762682878A1686D1C9047761EF8D28B
:104320002046FEF749F8F8BD4E414E006E616E0022
:10433000494E4600696E6600F7B5154682B0002703
:10434000029C2078641C0197302802D0002D15D0E3
:1043500015E020780127641C782804D0582802D062
:10436000002D09D00BE0002D01D0102D07D12078B1
:1043700000271025641C02E0082500E00A2500261D
:10438000009610E0009901276943081829467143F7
:10439000020C80B200908E183804864201D30120AE
:1043A00001902078641C294600F087FB0028E9DA98
:1043B0000398002805D0002F01D0641E00E0029C65
:1043C00004600198002806D0FFF77EFB02210160FF
:1043D000C81E05B0F0BD009930040843F9E700009D
:1043E000F7B516468AB0334878446C4603467C33AA
:1043F000C06F5A689B680DC42E487844763003AC71
:104400000DC80DC43720C001081837211B30FEF736
:104410000FFB05460C46803D1B3C02D56442012043
:1044200000E000200027099010E0E0070CD00C20ED
:1044300020497843794432464C3941186846012373
:1044400000F054FA6B4607C364107F1C002CECD1BB
:10445000184F7F442E3F16E0E80712D02001C01904
:104460000EC80691089307920068F04201D198198E
:1044700008903246012306A903A800F037FA03ABDF
:1044800007C36D10641C002DE6D10998002806D0E2
:1044900032466946012303A800F07EFA05E00123B5
:1044A0003246694603A800F021FA0A9B07C30DB003
:1044B000F0BD00007CB30100034640000A4610B581
:1044C000400D0BD00121C9070F24A40200191C03C1
:1044D00064082143540D2143D20207E0002101204A
:1044E000F2E7D40F490021435200401E0029F8DAB8
:1044F000DB0FDB07184310BDFFB50D46144685B032
:104500004868516805F0D4FD00910190A868A16841
:1045100005F0CEFD02910390A868616805F0C8FD22
:10452000029A12188242029201D2012000E0002079
:10453000019A0B18D2180028019202D08A4202D99F
:1045400003E08A4201D2012000E00020009908180F
:1045500000906868A16805F0ABFD029A12188242CB
:10456000029201D2012000E00020019A0B18D2181B
:104570000028019202D08A4202D903E08A4201D285
:10458000012000E0002000990818009028682168A8
:1045900040004900400849084018FA49471814E00B
:1045A00001994000C90F084300900198029940000A
:1045B000C90F08430190029803994000C90F0843AE
:1045C0000290039840007F1E039000980028E7DACD
:1045D0000898002801D0EC4E00E00026B74201DA2E
:1045E000012000E00020002804902AD0F71BF806E4
:1045F000C00E15D0029B2021091A039A8B401A4342
:104600000392029A019BC2408B401A430292019A84
:10461000009BC2408B4000991A430192C140009117
:104620007B110DD06F460320C11A03D500218200F3
:10463000B95003E08A008100BA587A50401EF3D581
:10464000374603980299002800D0012001430898BA
:104650000291002808460CD0002800D001200199C2
:10466000019A490508430121D20AC902D2020192E6
:1046700000E001210E9B0122D207012B02D0002B6A
:1046800003D013E0002807D120E0904204D89042E4
:104690000CD1019B0B4209D0019B5918019105D106
:1046A0000099491C009101D17F1C009200280DD077
:1046B000102108460020C0460498002806D00F9814
:1046C000002803D0082108460020C0462868216839
:1046D000019B009A4840C10F0598C90739430EC095
:1046E00009B0F0BDFFB587B0099A089808995368DA
:1046F000926840688968964600220393174694465C
:10470000089A12685300099A5B081268520052080E
:104710009A1A9E4BD4180A9A002A01D0352200E03A
:10472000402206920022012315460492DB070593DE
:1047300024E0002D05D175460346039E4D1BB34171
:1047400009D375466646039B491B049D9841059B0A
:104750007519AC465F4163463B4308D0059B049EF8
:10476000DD0776082E435B080496059301E0521E90
:10477000641EC50FED0749184041521C069B9A4222
:10478000D7DB002D04D17546039A6B1A824101D202
:1047900003200CE0039A0B466B404240134303D0C6
:1047A000014303D0012002E0022000E00020614626
:1047B00001910021009702910A99002905D06146D4
:1047C00040020143704B019102E0800700230290F8
:1047D0009C4201DA012000E0002007003AD01A1BB9
:1047E000D006C00E15D0029D2021019C091AC5409B
:1047F0008C402543029C8C4000D001242543019C21
:104800000295009DC4408D4000992C430194C14005
:10481000009154111DD06D460221002202290CD1B5
:104820000320001B07E0002804DB8600AE59002EA1
:1048300000D00122401C0328F5DB081B02D58800AC
:104840002A5004E08000285810438A00A850491ECE
:10485000E3D51C460A98002802980CD0002800D006
:1048600001200199019A490508430121D20AC90290
:10487000D202019200E00121109B0122D207012BFC
:1048800002D0002B03D013E0002807D11FE0904294
:1048900004D890420CD1019B0B4209D0019B5918BE
:1048A000019105D10099491C009101D1641C00922D
:1048B00000280CD0102108460020C046002F06D04A
:1048C0001198002803D0082108460020C046089807
:1048D0000999019A009B006809684840C10F079830
:1048E000C907214382600AC00BB0F0BD00B585B096
:1048F000019300920A460146002302A8FFF7FCFD3F
:1049000002A807C805B000BDFFB50A461F4685B01E
:104910000799019301230091014602A8FFF7ECFDDE
:1049200002990398049ECA0F4900D20700920F22F1
:10493000490892028C1A0021002800DB0C46450031
:1049400013486D08844214D3079A002A04DA441EDF
:104950000026104DF64302E004460D460E46102197
:1049600008460020C046002F03D00421084600203E
:10497000C0462005E90A0843009908436905F20A80
:104980001143ADE602C0FFFF013C0000FF3F000005
:10499000FF070000FFFFFF7F00B585B00193009285
:1049A0000A460146002302A8FFF79CFE02A807C89A
:1049B000A8E7FFB50A461F4685B007990193012372
:1049C0000091014602A8FFF78DFE02990398049E0C
:1049D000CA0F4900D20700920F22490892028C1A8E
:1049E0000021002800DB0C46450011486D08844278
:1049F00014D3079A002A04DA441E00260D4DF6430C
:104A000002E004460D460E46102108460020C0462E
:104A1000002F03D0042108460020C0462005E90AE3
:104A20000843009908436905F20A114358E600005B
:104A3000FF070000FFFFFF7FC80212D54803400FA9
:104A4000002804D0C803C043012188407047EFF319
:104A500000800001000903210907084380F3008852
:104A6000704700207047000010B500200249029AEC
:104A700000F08AF810BD00000000F87F7546FFF7CF
:104A8000C9FBAE46050069465346C008C0008546CE
:104A900018B020B5FDF79AFB60BC00274908B64660
:104AA0000026C0C5C0C5C0C5C0C5C0C5C0C5C0C53D
:104AB000C0C5403D49008D4670473A2800D2303885
:104AC000202302469A43412A01D3104637388842B0
:104AD00001D30020C043704710B50446C046C0460D
:104AE0002046FDF746FB10BD82078B079A4237D15F
:104AF00070B5920F0AD0032402780B78401C491C31
:104B0000002A2BD09A4229D12042F5D11D4EF40122
:104B100004C808C9951B9543254010D19A4207D176
:104B200004C808C9951B9543254008D19A42EFD087
:104B300012BA1BBA01209A4200D2404270BD12BA8A
:104B40001BBA2DBA18241000E0401900E140401AA9
:104B500005D12E00E64002D1083CF4D1D01A70BD38
:104B600002780B78401C491C002A09D09A4207D1D0
:104B700002780B78401C491C002A01D09A42EFD0E1
:104B8000D01A70470101010110B50C461107090F39
:104B9000092904D00A290AD008290CD104E01146B9
:104BA0000820FFF749FF06E0510606D501E051064F
:104BB00001D50120C007214610BDD10607D501014E
:104BC0000909CC084907000E0006044309E0410F1B
:104BD00020024907000A0143200E00061D22D14190
:104BE00001430846E7E7000001491820ABBEFEE795
:104BF00026000200704770B58C180578401C6B07C2
:104C00005B0F01D10378401C2A1106D10278401CA9
:104C100003E00678401C0E70491C5B1EF9D12B077F
:104C200005D40023521E0DD40B70491CFAE70378FB
:104C3000401CCB1A921C03E01D780D70491C5B1CB4
:104C4000521EF9D5A142D8D3002070BD70B50446DC
:104C500000688168490724D5816810264907002922
:104C600005DA8168890702D481683143816002F0E6
:104C7000C7F8054611E002F0C3F8401B02280CD922
:104C800020688068400708D5A06B3043A063E06BC4
:104C900001210843E063084670BD20688068400732
:104CA000E9D4002070BDF8B5044600688168890722
:104CB000890F01292CD10168C90702D1C1680904F3
:104CC00026D581680522114010250126012913D11E
:104CD000816802221143816021680320086002F08C
:104CE0008FF8074610E002F08BF8C01B02280BD9A2
:104CF00020688068C00707D0A06B2843A063E06BE2
:104D00003043E0630120F8BD20688068C007EAD125
:104D10000020F8BDF8B504460020009020688168A6
:104D20008907890F012905D10168C90731D1C168F7
:104D300009042ED48168184A102611400125002943
:104D40001AD1816829438160154814490068FDF72C
:104D500061FE00E0401E00900028FBD102F050F8F8
:104D6000074611E002F04CF8C01B02280CD920685D
:104D70000068C043C00707D0A06B3043A063E06B5E
:104D80002843E0630120F8BD20680068C043C007E5
:104D9000E8D10020F8BD00001700008040420F005D
:104DA00088060020F7B583B005210191B34901239E
:104DB0008B608B680B6800935B1C05D1009B0B60BC
:104DC0000968009100297DD0416853680068594006
:104DD0008E46116848408446614673461B0E654600
:104DE0009C002D02A64B2D0EAD005D591C590826C6
:104DF000F5416C400D042D0EAD005D591026F541B6
:104E00000606B60D9E591827FE4175406C4015697F
:104E100008266C4002946446240E0D02A4002D0E58
:104E2000AD005D591C59F5416C4005042D0EAD00D7
:104E30005D591026F54176463606B60D9E59FE415F
:104E400075406C40556908266C4000940C0E0502B4
:104E5000A4002D0EAD005D591C59F5416C407546FE
:104E60002D042D0EAD005D591026F541664636061F
:104E7000B60D9E59FE4175406C409569000E6C4020
:104E800075462D0280002D0EAD005D59185808267C
:104E9000F541684065462D042D0EAD005D59102684
:104EA000F5410906890D59581826F1414D40D1693F
:104EB0006840484001992032491E0191002971DD66
:104EC000029900E06FE0090E8D001F465959009BC2
:104ED0001B021B0E9D007B590825EB415940230402
:104EE0001B0E9D007B591025EB410506AE0DBD59EB
:104EF0001826F5416B405940136859408E46009979
:104F0000090E8B00F95823021B0E9D007B590825C2
:104F1000EB41594003041B0E9D007B591025EB41CA
:104F2000029D2D06AE0DBD591826F5416B40594026
:104F3000536859408C46210E8B00F95803021B0E12
:104F40009D007B590825EB415940029B1B041B0E19
:104F50009D007B591025EB41009D2D06AE0DBD59DE
:104F60001826F5416B4059409368000E5940830064
:104F7000F858029B1B021B0E9D007B590825EB4134
:104F80005840009B1B041B0E9D007B591025EB41D4
:104F90002406A50D7C591825EC4163405840D36880
:104FA00058401AE70EE00168136859408E46416880
:104FB000536859408C4681689368C0685940D368EB
:104FC00058400AE7029D2F492D0EC3B24D5DCB5CC0
:104FD0002D062B43009D26042D022D0E360E4D5D11
:104FE0008E5D2D04360235432B43156806046B4055
:104FF000049D360E2B60009D029B2D0EDBB24D5D95
:10500000CB5C2D062B4325022D0E4D5D8E5D2D04B0
:10501000360235432B4355686B40049D6B60009B03
:10502000250EDBB24D5DCB5C2D06029E2B430502A7
:1050300036042D0E360E4D5D8E5D2D043602354341
:105040002B439568000E6B40049DAB60E3B2085C97
:10505000CB5C0006034302980002009C000E24046F
:10506000085C240E095D0004090208430343D0686C
:1050700043400498C36006B0F0BD00000030024019
:1050800034DE01080CDC0108F8B505460C4600F0DA
:1050900093F82868206068686060A868A060E86885
:1050A000E06001200090424842491034A56823681E
:1050B000AC46E5681E02AE461D0E455D360E865DA9
:1050C000AD00B6008E5908274D59FE4175401E04AB
:1050D000360E865DDBB2B6008E591027C35CFE41EA
:1050E0009B00CB581827FB415E40754062682560E5
:1050F000130E1502C35C2D0E455D9B00AD004D598E
:105100000826CB58F5416B4015042D0E455DD2B2F3
:10511000AD004D591026825CF54192008A58182640
:10512000F24155406B40654663602A0E2B02825C5B
:105130001B0EC35C92009B00CB588A580825EB419C
:105140005A4065462B041B0EC35C10259B00CB58B0
:10515000EB416546EDB2455DAD004D59F5416B4003
:105160005A407546A2602A0E2B02825C1B0EC35C5D
:1051700092009B00CB5808258A58EB415A4075464F
:105180002B041B0EC35C10259B00CB58EB417546CE
:10519000EDB2455DAD004D59F5416B405A40E260BE
:1051A000009A521C00920A2A00DA7EE7F8BD00003D
:1051B0000CDC010834E20108F8B544688368026831
:1051C000C0684C60A4468B600A60164CC860A64656
:1051D00010310A24144D00940602360E040EAE5D02
:1051E0002C5D360634430604360EC7B2AE5DEF5D65
:1051F00036043F023E433443764636687746744071
:1052000062406446544063404C608B6058400A6082
:10521000A446C8603F1D009C1031641EBE46009429
:10522000DAD1F8BD0CDE01080CDC0108F7B583B05B
:1052300006210191B34901238B608B680B680093B1
:105240005B1C05D1009B0B600968009100297DD093
:1052500041685368006859408E461168484084464A
:10526000614673461B0E65469C002D02A64B2D0E13
:10527000AD005D591C590826F5416C400D042D0EFA
:10528000AD005D591026F5410606B60D9E5918274A
:10529000FE4175406C40156908266C4002946446D6
:1052A000240E0D02A4002D0EAD005D591C59F541D0
:1052B0006C4005042D0EAD005D591026F541764673
:1052C0003606B60D9E59FE4175406C40556908265C
:1052D0006C4000940C0E0502A4002D0EAD005D592B
:1052E0001C59F5416C4075462D042D0EAD005D59DD
:1052F0001026F54166463606B60D9E59FE417540AC
:105300006C409569000E6C4075462D0280002D0E94
:10531000AD005D5918580826F541684065462D04D2
:105320002D0EAD005D591026F5410906890D59581D
:105330001826F1414D40D16968404840019920321A
:10534000491E0191002971DD029900E06FE0090E0C
:105350008D001F465959009B1B021B0E9D007B5957
:105360000825EB41594023041B0E9D007B59102555
:10537000EB410506AE0DBD591826F5416B4059406D
:10538000136859408E460099090E8B00F958230284
:105390001B0E9D007B590825EB41594003041B0E51
:1053A0009D007B591025EB41029D2D06AE0DBD5988
:1053B0001826F5416B405940536859408C46210EE0
:1053C0008B00F95803021B0E9D007B590825EB4109
:1053D0005940029B1B041B0E9D007B591025EB417D
:1053E000009D2D06AE0DBD591826F5416B40594064
:1053F0009368000E59408300F858029B1B021B0E55
:105400009D007B590825EB415840009B1B041B0E57
:105410009D007B591025EB412406A50D7C591825CC
:10542000EC4163405840D36858401AE70EE00168E9
:10543000136859408E464168536859408C468168CC
:105440009368C0685940D36858400AE7029D2F49C5
:105450002D0EC3B24D5DCB5C2D062B43009D260463
:105460002D022D0E360E4D5D8E5D2D043602354318
:105470002B43156806046B40049D360E2B60009D7F
:10548000029B2D0EDBB24D5DCB5C2D062B4325021E
:105490002D0E4D5D8E5D2D04360235432B43556830
:1054A0006B40049D6B60009B250EDBB24D5DCB5CB9
:1054B0002D06029E2B43050236042D0E360E4D5D41
:1054C0008E5D2D04360235432B439568000E6B40EC
:1054D000049DAB60E3B2085CCB5C0006034302981A
:1054E0000002009C000E2404085C240E095D0004E8
:1054F000090208430343D06843400498C36006B0E0
:10550000F0BD00000030024034DE01080CDC010870
:10551000F8B50C4600F08AF8012000904148424A54
:105520001034A5682368AC46E5681E02AE461D0E21
:10553000455D360E865DAD00B60096590827555973
:10554000FE4175401E04360E865DDBB2B6009659EC
:105550001027C35CFE419B00D3581827FB415E40D7
:105560007540616825600B0E0D02C35C2D0E455D14
:105570009B00AD0055590826D358F5416B400D04EA
:105580002D0E455DC9B2AD0055591026415CF5415F
:10559000890051581826F1414D406B4065466360C3
:1055A000290E2B02415C1B0EC35C89009B00D35863
:1055B00051580825EB41594065462B041B0EC35C2E
:1055C00010259B00D358EB416546EDB2455DAD001B
:1055D0005559F5416B4059407546A160290E2B0283
:1055E000415C1B0EC35C89009B00D35808255158B1
:1055F000EB41594075462B041B0EC35C10259B00E4
:10560000D358EB417546EDB2455DAD005559F541B6
:105610006B405940E1600099491C00910C2900DA67
:105620007EE7F8BD0CDC010834E20108F0B5002289
:10563000964682B002680A60436802684B6043681D
:10564000214D9C4683688B60C4688368CC60C468C5
:10565000019404690C610469009444694C614069D7
:1056600018310602360E040EAE5D2C5D360634434C
:105670000604360EC7B2AE5DEF5D36043F023E4310
:10568000344362407446A600104CA45962407446EC
:10569000641CA64664465440A4466340019C5C409A
:1056A000019464464C608B600A60019CCC60744637
:1056B000082C07DA019E009C7440009460400C6145
:1056C0004861CDE702B0F0BD0CDC01080CDE01083A
:1056D000F7B583B007210191B34901238B608B6833
:1056E0000B6800935B1C05D1009B0B60096800915F
:1056F00000297DD0416853688068594093688C4682
:105700005840864663466046000E754684002D026A
:10571000A6482D0EAD00455904590826F5416C40A8
:105720001D042D0EAD0045591026F5410E06B60D8F
:1057300086591827FE4175406C40156908266C4053
:1057400002947446240E1D02A4002D0EAD0045598E
:105750000459F5416C400D042D0EAD00455910263D
:10576000F54166463606B60D8659FE4175406C40D9
:10577000556908266C4000941C0E0D02A4002D0EE5
:10578000AD0045590459F5416C4065462D042D0E78
:10579000AD0045591026F54176463606B60D8659B8
:1057A000FE4175406C409569090E6C4065462D02BE
:1057B00089002D0EAD00455941580826F541694034
:1057C00075462D042D0EAD0045591026F5411B06DA
:1057D0009B0DC3581826F3415D40D3696940594079
:1057E000019B20325B1E0193002B71DD029B00E0C8
:1057F0006FE01B0E9B000746C35800980002000E86
:10580000850078590825E84143402004000E8500B2
:1058100078591025E8410D06AE0DBD591826F54101
:10582000684043401068434000989C46000E830047
:10583000F85823021B0E9D007B590825EB41584068
:105840000B041B0E9D007E591023DE41029B1B069C
:105850009D0D7D591823DD416E40536870405840BE
:105860008646200E83000802000E85007859FB58FA
:105870000825E841434002980004000E850078594D
:105880001025E841009D2D06AE0DBD591826F541A5
:105890006840434090684340080E81000298795860
:1058A0000002000E850078590825E8414140009823
:1058B0000004000E850078591025E8412406A50D46
:1058C0007C591825EC4160404140D06841401AE7BE
:1058D0000EE00168136859408C464168536859408E
:1058E0008E46836891684B40C168D06841400AE7A2
:1058F0002F48CBB2C55C029B26041B0EC35C360E40
:105900001B061D43009B865D1B021B0EC35C3602FB
:105910001B0433431D4313680E045D40049B360E85
:105920001D60009D029B2D0EDBB2455DC35C2D0604
:105930002B4325022D0E455D865D2D043602354331
:105940002B4355686B40049D6B60009B250EDBB2BA
:10595000455DC35C2D06029E2B430D0236042D0EC1
:10596000360E455D865D2D04360235432B43956822
:10597000090E6B40049DAB60E3B2415CC35C090659
:105980000B4302990902009C090E2404415C240E79
:10599000005D090400020143D0680B4343400498B2
:1059A000C36006B0F0BD00000030024034DE0108E4
:1059B0000CDC0108F8B50C4600F08AF801200090D4
:1059C0004148424A1034A5682368AC46E5681E0287
:1059D000AE461D0E455D360E865DAD00B60096598D
:1059E00008275559FE4175401E04360E865DDBB210
:1059F000B60096591027C35CFE419B00D358182768
:105A0000FB415E407540616825600B0E0D02C35C72
:105A10002D0E455D9B00AD0055590826D358F54124
:105A20006B400D042D0E455DC9B2AD0055591026D1
:105A3000415CF541890051581826F1414D406B40B9
:105A400065466360290E2B02415C1B0EC35C890016
:105A50009B00D35851580825EB41594065462B040B
:105A60001B0EC35C10259B00D358EB416546EDB27D
:105A7000455DAD005559F5416B4059407546A160F3
:105A8000290E2B02415C1B0EC35C89009B00D3587E
:105A900008255158EB41594075462B041B0EC35C39
:105AA00010259B00D358EB417546EDB2455DAD0026
:105AB0005559F5416B405940E1600099491C0091EE
:105AC0000E2900DA7EE7F8BD0CDC010834E201089B
:105AD000F0B584B0002203924468C368A646846887
:105AE0000268A44674464C600A6064468C60CB60D1
:105AF0000469029444690094029C0C61009C4C610E
:105B000084690194C0698C61C861294D0602360E12
:105B1000040EAE5D2C5D360634430604360EAE5DD3
:105B2000C7B2ED5D36042D022E4334435440039A30
:105B3000203195001F4A52596240039C641C039413
:105B400074465440A646644675466C40A44663407D
:105B500074464C600A6064468C60CB60039C072CE2
:105B600023DA134C1E0EDDB2A65D655D36063543A5
:105B70001E02360E1F04A65D3F0EE45D36042402AD
:105B80002643029C35436540009C02956C4000947E
:105B9000009D019C6C4060400194029C0C61009C43
:105BA0004C61019C8C61C861AFE704B0F0BD00009E
:105BB0000CDC01080CDE010838B5049C009400F0F0
:105BC00015F838BD002808D0002A06D00179022334
:105BD0001943017100201060704761204001704737
:105BE00010B5062300F044F910BD0000FFB58BB0DE
:105BF0000020009001900290039004900B981D46A5
:105C00000E4600280FD0002E0DD0002D0BD014987A
:105C1000002808D00B980079810701D4410706D5E8
:105C200080480FB0F0BD612040010FB0F0BD0D996C
:105C3000090703D0042108430B9908717A48012110
:105C400081608168016804914A1C0B9928310A918E
:105C50000B9914310591002A3CD00D98002410288E
:105C600025DB6F46315900200ABA401C06920428F1
:105C7000FADB0B986946436A0A9A059800F0E9F83E
:105C80000B980B99006A401C08620020820006AB4A
:105C9000B9589B58401C1943B95009BA29510428D6
:105CA000F4DB103420460D9910308842DADD0D986F
:105CB00084426FDA0B986946436A0A9A059800F0A5
:105CC000C8F80D980021021BD0179646800F70442B
:105CD000871070E0049901600068049000282AD0C1
:105CE0000D9800241028E2DB6F46315900200ABAD3
:105CF000401C06920428FADB0B986946436A0A9A0C
:105D0000059800F0A6F80B980B99006A401C0862F1
:105D10000020820006ABB9589B58401C1943B9506B
:105D200009BA29510428F4DB103420460D991030AB
:105D30008842DADDBBE70D9800241028B7DB00208D
:105D400006AF81000A19B258401C12BA7A500428D2
:105D5000F7DB0B986946436A0A9A059800F079F8D0
:105D60000B980B99006A6A46401C0862002081006B
:105D700006AF53587F58401C7B40535009191BBA3B
:105D80006B500428F3DB103420460D991030884204
:105D9000D5DD8CE73FE08A0010198446305803BAFD
:105DA00006A88350684680584340684683501ABA14
:105DB00060462A50491C8F42EDDC70468A00831AE7
:105DC000002B28DD11198819401E4919491E00248D
:105DD000DE0708D06C46A458401C240E0678491CE7
:105DE00074400C7001245B1015D06D46AD58E60070
:105DF0001827BF1BFD4047787D404D706D46AD585C
:105E00001027BE1BF540801C0678891C7540A41C19
:105E10000D705B1EE9D114990D98086000200FB039
:105E2000F0BD00001E0C000000300240002808D029
:105E3000002A06D001790223194301710020106065
:105E4000704761204001704710B5062300F010F83C
:105E500010BD00B5182B04D0202B05D0FEF7A2FFF3
:105E600000BDFFF7E3F900BDFFF732FC00BD000005
:105E7000FFB589B08E46002809D0002907D00C99BB
:105E80004907890F8C46002A05D1012903D06120DA
:105E900040010DB0F0BD416A102903D0182901D08E
:105EA000202906D16146012906D00169491E102921
:105EB00002D350480DB0F0BDC2600179F9231940FA
:105EC00001716146012938D0002141618161C161C0
:105ED00001620169002934DDCB07DB0F02D01478A1
:105EE00024064461994228DDD917890FC918890809
:105EF00089000D182C46591ACF001434D65C18218D
:105F0000C91B8E406D69591C354325605C1CE51723
:105F1000AD0F2C19A408A40026183546091BD71864
:105F2000CC0014357F7818217669091B8F403E43D9
:105F30002E6001699B1C9942D6DC0179C90702D009
:105F400055E00023CEE7714681600C99CA070146EF
:105F50002831002A0CD06246032A09D0426A0C4636
:105F6000D017800F0021801873466E46851027E0F9
:105F7000426A0020D417A40FA41873466E46A510D9
:105F800004E084001F59401C3FBA37518542F8DCB9
:105F9000102A04D0182A06D0202A28D107E030463B
:105FA000FFF70AF923E03046FFF740FB1FE03046D9
:105FB000FFF78EFD1BE088001F58491C3FBA375081
:105FC0008D42F8DC102A04D0182A07D0202A0ED1DE
:105FD00009E021463046FFF757F808E021463046F1
:105FE000FFF796FA03E021463046FFF7E3FC002076
:105FF0000DB0F0BD1F0C000070B5827A022A03D0EC
:10600000042A01D0052A2ED1C27A3C3A292A2AD262
:10601000027B3C2A27D3642A25D8072200230124A7
:10602000C5186E7B233E232E1DD8AD7B2E46163E13
:10603000082E04D80D7826469640B54306E0443D28
:10604000072D10D80D78264696403543521E0D7008
:1060500052B2551C01D10722491C9B1CDBB2502BAC
:10606000DED3012070BD002070BD036800221B68D4
:106070005A6200680068426A8A42FCD37047000096
:1060800070B51D460446059B04982260606023811C
:10609000A172204600F033F820686D1E456021682B
:1060A0000020886022680C49D160216888612068DE
:1060B00002F0DEF8206802F039F97D24240102E0C4
:1060C000012000F0EDFC00F09BFEA042F8D314206C
:1060D00000F0E6FC70BD0000FFFF000000B53121BC
:1060E00085B00904019103210391018900910021E8
:1060F00002914068694600F09DFD05B000BD00B505
:10610000426885B0018991611121019103210391B8
:1061100001890091002102914068694600F08AFDE2
:1061200005B000BD10B5044600F06AFE606620466A
:106130004030018C53290ED222681268526AA36E35
:10614000D21A23460B33CA5421680968496AA166EA
:10615000018C491C018410BDF7B50446807A2546A0
:10616000603582B01646022803D0042801D00528E5
:1061700068D12046FFF7C3FF208961680004886169
:10618000052000F08DFC616820898861142120467B
:10619000FFF76BFF208961680004886105212046B4
:1061A000FFF763FF002060210853A066216809689B
:1061B000486200F025FE07462046FFF78FFF00F0FB
:1061C0001FFEC01B08283DD800F01AFE616E401A61
:1061D0000128F4D969462046FFF70EFF002831D088
:1061E0006846017840780B1868468178C27888182C
:1061F0001818C3B268460079834223D10802801878
:10620000FDF73CFC134F3946FDF744FBE06603996C
:10621000002900D00860684600780102684640788E
:106220000818FDF72BFC3946FDF734FB2067002EDC
:1062300000D03060012028752046FFF760FF002065
:1062400005B0F0BD012028752046FFF758FF01205A
:10625000F6E700000000204110B5042000F0DEFC4D
:10626000082000F0DBFC10BD10B5202000F0D6FCAB
:10627000802000F0D3FC0120C00300F0CFFC10BD53
:1062800006490020C86106480169042211430161E2
:10629000016940221143016170470000903A0020DB
:1062A00000200240064A0021D16106490A69022302
:1062B0001A430A6148610869402210430861704727
:1062C000903A00200020024010B5054B0022DA6110
:1062D000044A1369012423431361018010BD0000A7
:1062E000903A00200020024010B50B4A0020D168EF
:1062F000CB060A4904D5C86902231843C861102097
:10630000D3685B0705D5CB6901242343CB61042106
:106310000843D06010BD000000200240903A0020E9
:1063200070B5054600F06CFD0646104C0AE0681C8E
:1063300008D0002D04D000F063FD801BA84201D9D5
:10634000032070BDE068C007F1D1E068800601D588
:106350002020E060E068C00602D4E068400703D572
:10636000FFF7C2FF012070BD002070BD0020024079
:10637000F8B5FF270C460546324E0137030003F0FF
:10638000AFFE0504074043460C000022012101E056
:1063900000220221304600F02CFD01210903304685
:1063A00000F01AFD207001214903304600F014FD71
:1063B000607001218903304600F00EFDA0700121BC
:1063C000C903304600F008FDE07040211E4800F08F
:1063D00003FD207180211C4800F0FEFC60713946ED
:1063E000194800F0F9FCA07101214902164800F09B
:1063F000F3FCE0712B0003F073FE051013171A1D58
:10640000230000220421C5E70022394602E00022D1
:106410000121C9020920C006BDE70122114601E0A1
:1064200001220221304609E001220421FAE701227B
:10643000394601E00122D1020920C00600F0D9FC52
:10644000F8BD00000004004800080048F8B5264EDA
:10645000CF00BC190D462254002902D0012D09D1CC
:1064600003E001222021214802E0012211022048FC
:1064700000F0BFFCF25D0926F6060221304600F06E
:10648000B8FC62780121304600F0B3FC174EA278C8
:106490000821304600F0ADFCE2780421304600F0DF
:1064A000A8FC22790221304600F0A3FC6279012188
:1064B000304600F09EFC0F4FA2790221384600F0D2
:1064C00098FCE2790121384600F093FC002D07D0BA
:1064D000012D04D100222902054800F08AFCF8BDF4
:1064E000002220213046F8E74A1E0020000800481C
:1064F0000004004800140048F8B50546044620355D
:10650000287D0026012808D0012028752068816890
:106510008907890F012908D101E00220F8BD01682F
:10652000C9073CD1C168090439D4A16BFF220132EB
:10653000914302221143A163C1688907890F009129
:10654000C16889088900C160206881689207114389
:10655000816000F055FC074612E000F051FCC01BC2
:1065600002280DD920688068002809DAA06B022172
:10657000884310210843A063002028750120F8BD3E
:10658000206880680028E8DB2068C168009A114311
:10659000C160A06B80088000401CA06304E0A06B79
:1065A00020210843A0630126002028753046F8BD4D
:1065B000F8B50025044620340095227D012A39D003
:1065C0000122227503689E68760767D4384F4E68AB
:1065D000BE424DD09E6A0F78BA4016439E62012398
:1065E000C26A1B079A421FD0012A1DD0022A1BD063
:1065F000032A19D0042A17D0052A15D0062A13D049
:10660000072A11D002688B6856697607760FB34265
:106610000AD05369DB08DB005361006842690B7ADA
:106620005B075B0F1A4342610A68102A04D0112AE3
:1066300002D038E00220F8BD1E488368102A07D037
:1066400001229205134383600868102803D02AE0D2
:106650000122D205F6E7194817490068FCF7DAF974
:106660000A21484300E0401E00900028FBD11AE0B8
:10667000986A0E78B240904398620968102901D058
:10668000112910D10B488268102904D001218905F5
:106690008A43826007E00121C905F9E7816B202266
:1066A000114381630125002020752846F8BD0000B4
:1066B000011000000027014040420F008806002022
:1066C0000068006C70470000F8B5002604460028FA
:1066D00005D0A06B25462035002802D007E0012018
:1066E000F8BD0020E0632875204600F0A9F8A06BF3
:1066F0001022C006002870DB2068816849076CD42E
:10670000A16B1301994302231943A163816889078F
:10671000890F012905D10168C9070FD1C168090492
:106720000CD4C16818239943A3681943C160206839
:106730000169636889008908194301612068C1689B
:106740003D4B1940C160207E617E8003C903084330
:10675000A17E4B031843A36A012B02D001231B0324
:1067600000E000231843E36818432369022B09D093
:10677000002318432B79E57E5B0018430123012D8C
:1067800002D00AE00423F4E7002927D0A16B2025DA
:106790002943A163E16B1943E163E1690D46FF3DC4
:1067A000C23D02D0256A294308432168CD680543CC
:1067B000CD600125E16A2D07A94213D0012911D02E
:1067C00002290FD003290DD004290BD0052909D0A7
:1067D000062907D0072905D010E028E00121090487
:1067E0000843DAE721684D69ED08ED004D61216845
:1067F0004D69A78D7F077F0F3D434D612168C968B3
:106800000E4D2940814207D10020E063A06B800833
:106810008000401CA06308E0A06B02218843104365
:10682000A063E06B1843E06301263046F8BDA06B1F
:106830001043A063F8E700001902FEFFE7FF3F8363
:1068400030B587B0044614216846FCF711F81649A4
:106850002068884225D11548826941150A43826122
:1068600082690A400592426909020A43426142690B
:106870000A400592426989000A4342614069032443
:1068800008400590902000256A4631C26946C0053F
:1068900000F0D0F910206A4631C26946044800F081
:1068A000C9F907B030BD00000024014000100240CB
:1068B00000080048F8B504464069254620350E46D4
:1068C00008280BD02068C068C00709D0A06B202121
:1068D0000843A063002028750120F8BD082700E0C8
:1068E0000C2700F08DFA009015E0701C13D0002EDC
:1068F00005D000F085FA0099401AB0420BD9206803
:106900000068384207D1A06B04210843A06300202F
:1069100028750320F8BD206800683842E5D0A06BD8
:10692000012149020843A0632068C16809058A0F54
:106930000C21002A1AD1A27E002A17D10268120760
:1069400014D5826853070122002B08DB43688B4370
:106950004360A06B130298431043A06306E0A06B52
:1069600020231843A063E06B1043E063207E0028DF
:1069700001D1206801600020F8BD000070B5044618
:10698000216800208968490721D425462035297DC2
:1069900001291CD001212975617E012904D02046DE
:1069A000FEF7B8F9002811D1A16B0A4A1140FF2265
:1069B00001321143A1630021E163297522681C2182
:1069C000116021688A6804231A438A6070BD02201E
:1069D00070BD0000FEF1FFFF70B50546044620358E
:1069E000287D012807D001262E752046FEF72EF9B6
:1069F000002802D00CE0022070BD2046FEF753F9BB
:106A0000002805D1A16BFF22013291433143A163DC
:106A10000021297570BD30B5014620314B78002228
:106A2000022B04D0042383630A70012030BD036865
:106A30001C680E25AC431C6003681C686408640075
:106A40001C600123056C1C46C06BAC4044604B705D
:106A50000A70002030BD70B50024014620314A780C
:106A6000022A03D004218163012416E0026813681E
:106A70000E25AB431360026813685B085B0013606C
:106A80000122056C1346AB40C56B6B604A70002257
:106A90000A70416B002900D08847204670BD000075
:106AA00070B5044600F0ACF90546601C02D00448FD
:106AB0000078241800F0A4F9401BA042FAD370BD5E
:106AC0007C060020F8B5054623480F46017E0126C6
:106AD00001290BD0012101762868204C012807D01C
:106AE0002046FFF71DFC002813D030E00220F8BD3F
:106AF0002046FFF715FC002829D1FFF7C1FB2046EF
:106B0000FFF70EFC06461648016904229143016115
:106B10001DE00020C04338606C6812E02046FFF79B
:106B2000C1FB0E48FFF7FCFB06460D480269022137
:106B30008A430261002E01D03C6008E00120C002BF
:106B40002418A868C10268680818A042E6D802485C
:106B5000002101763046F8BD903A002050C3000075
:106B600000200240F0B51FB407461A480024017EF9
:106B700015461E46012907D0012101761648FFF768
:106B8000CFFB002803D020E0022005B0F0BD012F8C
:106B900002D0022F00D00427220128463146FBF7FD
:106BA00037FB81B2019862001018FFF78DFB0A488D
:106BB000FFF7B6FB09490A69520852000A6100282A
:106BC00003D1641CE4B2BC42E6D3024900220A7637
:106BD000DBE70000903A002050C300000020024094
:106BE000064900200A69120607D5054A4A60054A87
:106BF0004A600969090600D501207047002002405B
:106C000023016745AB89EFCD10B5042802D10248B6
:106C1000FFF788FA10BD0000D039002010B50449F4
:106C20004A69024202D04861FFF7EEFF10BD000042
:106C300000040140F8B5002303240125BAE02E46E4
:106C40009E40B44632407CD00E79B607B60F012E76
:106C500001D0022E17D186682746B6465E00B7409F
:106C600000967646BE43B646CF68009EB74076464D
:106C70003743876046686746BE430F79FF06FF0FBC
:106C80009F40374347600E79F643B6070ED0C6687B
:106C90002746B4465E00B646B7406646BE43B44695
:106CA0008F687646B74066463743C7600E79B607A9
:106CB000B60F022E14D1DE08B60036180096366ADA
:106CC0005F07B446FE0E0F27B646B7406646BE4382
:106CD000B4460F697646B74066463743009E376232
:106CE00006682746B4465E00B646B7406646BE43D1
:106CF0000F79B446BF07BF0F7646B74066463743A5
:106D000007604E68B603B60F53D02D4FBE692E43B1
:106D1000BE61BE699F08F607F60F2A4EBF00BE1976
:106D20000096B6680F27B4469E07360FB646B740A2
:106D30006646BE430927FF06B446B84202D1002783
:106D400010E036E0204FB84201D101270AE01F4F82
:106D5000B84201D1022705E01D4FB84201D10327F7
:106D600000E005277646B74066463743009EB76089
:106D7000184E36684F689643FF0300D51643154FEB
:106D80003E607E684F689643BF0300D51643114F9F
:106D90007E60BE684F689643FF0200D516430D4FD4
:106DA000BE60FE684F689643BF0200D51643094A8D
:106DB000D6605B1C0A681646DE4000D03FE7F8BD8F
:106DC0000010024000000140000400480008004894
:106DD000000C0048000401400069084000D0012078
:106DE0007047426913460B401B0491430B43836178
:106DF0007047002A01D081617047816270470000AE
:106E000001488068704700007C06002070B502468B
:106E100040325378202B1CD11378012B19D0012339
:106E2000137024245470046825689D432560046809
:106E300025681E03B5432560046825680D43256059
:106E40000068016819430160202050700020107014
:106E500070BD022070BD70B5024640325378202BC1
:106E60001BD11378012B18D00124147024235370E4
:106E700003681D68A5431D6005682B680F26360250
:106E8000B343090219432960006801682143016086
:106E9000202050700020107070BD022070BD0000D6
:106EA00070B5040006D025464035687800260028D5
:106EB00002D005E0012070BD2E70204600F0AAFA35
:106EC00024206870206801684908490001600F218A
:106ED0006068090688432168086121688A68012082
:106EE000C00382438A60E1680129A16808D0212299
:106EF0009202114322689160E168022902D005E004
:106F00000143F7E701212268C902516021684A68FC
:106F10000F4B1A434A602168CA688243CA6061699C
:106F200020690843A169090208432168C860216AF1
:106F3000E069084321680860206801680122114364
:106F400001606664202068702663AE70002070BD0A
:106F500000800002FFB5054604464035687881B0E0
:106F6000202878D12878012875D001202870FFF7D3
:106F700047FF0746012200901923D103204601F064
:106F800085FE00283CD1222068701020A8700026C1
:106F9000666403986062049860856663618D2F481B
:106FA000FF2903D9FF22228500903BE0618D2185D6
:106FB00000903DE02046029901F054FE16E001F0F9
:106FC0008DFE00281CD12068406A616A0870606AE2
:106FD000401C6062208D401E81B22185608D401E64
:106FE0006085608D002801D000290CD0608D0A9941
:106FF00000283A462046E2D101F0B0FE00281CD01D
:10700000012005B0F0BD00970022802120460A9B98
:1070100001F03CFE0028F3D1608DFF2805D9FF2246
:107020002285009601231B06C4E7608D208500960B
:10703000208D0123C2B25B06BCE721682020C86115
:1070400021684A68064B1A404A606870AE702E701C
:107050000020D6E7FFE70220D3E7000000240080ED
:1070600000E800FEFFB5054604464035687881B06B
:10707000202878D12878012875D001202870FFF7C2
:10708000BFFE0746012200901923D103204601F0DC
:10709000FDFD00283CD1212068701020A87000263A
:1070A000666403986062049860856663618D2F480A
:1070B000FF2903D9FF22228500903BE0618D2185C5
:1070C00000903DE02046029901F0CCFD16E001F071
:1070D0006BFE00281CD1606A216800788862606AB3
:1070E000401C6062608D401E6085208D401E80B215
:1070F0002085618D002901D000280CD0608D0A996F
:1071000000283A462046E2D101F028FE00281CD093
:10711000012005B0F0BD00970022802120460A9B87
:1071200001F0B4FD0028F3D1608DFF2805D9FF22BE
:107130002285009601231B06C4E7608D20850096FA
:10714000208D0123C2B25B06BCE721682020C86104
:1071500021684A68064B1A404A606870AE702E700B
:107160000020D6E7FFE70220D3E7000000200080E0
:1071700000E800FEFFB5054604464035687883B058
:10718000202875D10C98002814D00D98002811D013
:10719000287801286CD001202870FFF731FE0746BF
:1071A000012200901923D103204601F06FFD002831
:1071B00074D103E00120400260646FE02220687017
:1071C0004020A870002666640C9860620D98608567
:1071D00066630E980090019704A90EC9204601F03D
:1071E000E1FC002801D02E7058E0618D3448FF2961
:1071F00005D9FF22228501231B06009006E0618D40
:1072000021850090208D0123C2B25B06204604999F
:1072100001F028FD00970022042120460E9B01F07A
:1072200035FD00283AD12068406A616A0870606ABA
:10723000401C6062208D401E81B22185608D401E01
:107240006085608D00281FD000291DD10097002285
:10725000802120460E9B01F019FD00281ED1608D73
:10726000FF2806D9FF22228501231B06009607E08E
:1072700024E0608D20850096208D0123C2B25B063C
:107280002046049901F0EEFC608D0028C2D13A46F8
:1072900020460E9901F062FD002802D0012007B0BF
:1072A000F0BD20682021C16120684268054B1A406A
:1072B00042606970AE702E700020F0E70220EEE7A9
:1072C0000024008000E800FEFFB505460446403576
:1072D000687883B0202872D10C98002814D00D98BB
:1072E000002811D02878012869D001202870FFF7E4
:1072F00087FD0746012200901923D103204601F0A3
:10730000C5FC002871D103E00120400260646CE0FC
:10731000212068704020A870002666640C98606286
:107320000D98608566630E980090019704A90EC9B8
:10733000204601F067FC002801D02E7055E0608DDA
:10734000FF2805D9FF22228501231B06009606E0AF
:10735000608D20850096208D0123C2B25B062046F9
:10736000049901F07FFC3A4620460E9901F01CFD7D
:1073700000283AD1606A216800788862606A401CFF
:107380006062608D401E6085208D401E80B2208529
:10739000618D00291FD000281DD100970022802177
:1073A00020460E9B01F072FC00281ED1608DFF2844
:1073B00006D9FF22228501231B06009607E024E060
:1073C000608D20850096208D0123C2B25B06204689
:1073D000049901F047FC608D0028C4D13A4620464C
:1073E0000E9901F0BBFC002802D0012007B0F0BDCF
:1073F00020682021C16120684268054B1A40426024
:107400006970AE702E700020F0E70220EEE70000F9
:1074100000E800FE10B586B0044614216846FBF76C
:1074200027FA13492068884220D1124C6169012053
:1074300040040143616161690140032005914002FC
:10744000009012200190002002900320039004205D
:10745000049009206946C006FFF7ECFBE1690120B2
:1074600040050143E161E1690140059106B010BDAD
:10747000005400400010024070B504000FD0216895
:107480001548086021681548086003CC41602068F1
:10749000083C21688860FFF7B3FC05460CE001203A
:1074A00070BDFFF7ADFC401B272805D92068C068D8
:1074B000400701D0032070BD2068C0684007F0D1AC
:1074C00020680269E1688A4201D0016101E0044953
:1074D0000160002070BD0000CCCC000055550000BC
:1074E000AAAA00000068024901600020704700005D
:1074F000AAAA000002488168027889188160704752
:107500007C06002010B50648016810221143016076
:10751000002000F007F800F027F8002010BD000060
:107520000020024070B504460D4D7D202978C00032
:10753000FBF770FA01460B480068FBF76BFA00F0A6
:107540004FFE002809D1042C07D200222146401EFC
:1075500000F02AF800206C6070BD012070BD0000B2
:107560007C0600208806002008B5084881690122B1
:1075700011438161816911400091C26901040A438C
:10758000C261C0690840009008BD000000100240C0
:10759000002805DBC106C90E0120884001490860AA
:1075A0007047000000E100E010B502F0BDFD10BD25
:1075B000BFF34F8F04490348C860BFF34F8F00BF2C
:1075C000FDE700000400FA0500ED00E0F8B505460F
:1075D0000068354CC00352D5E0690026C00007D4CE
:1075E000E16920040143E161E16901400126009164
:1075F0002E480168C90510D4016882151143016045
:10760000FFF7FEFB074604E0FFF7FAFBC01B642808
:1076100024D826480068C005F6D5206A03273F0213
:10762000384020D06968394081421CD0206A226AE3
:10763000B843012109040A432262226A8A43226272
:107640002062C0070FD0FFF7DBFB009008E0FFF7D8
:10765000D7FB0099411A1648814201D90320F8BD91
:10766000206A8007F3D5206A6968B843084320621E
:10767000002E04D0E169012000078143E1612878F0
:10768000C00705D0206BA9688008800008432063EC
:107690002878800605D5206B10218843E9680843C7
:1076A00020630020F8BD0000001002400070004080
:1076B00088130000F8B50F46060059D03A4D2868E7
:1076C000C007C00FB84209D22868400840003843BC
:1076D00028602868C007C00FB84249D13068334CD1
:1076E00081070CD5400704D56068072109020843CB
:1076F00060606068F0218843B1680843606030785A
:10770000C00726D0706801280ED0216802280ED04C
:10771000890700292CDA61688908890001436160C2
:10772000FFF76EFB00900DE021688903F1E7890106
:10773000EFE7FFF765FB0099411A1D48814201D927
:107740000320F8BD60680C210840716889008842F8
:10775000EFD12868C007C00FB8420BD9286840088D
:107760004000384328602868C007C00FB84201D0E5
:107770000120F8BD3078400706D56068072109026E
:107780008843F1680843606000F028F86168094A9E
:107790000906090F515CC840074908600020FFF73F
:1077A000C1FE0020F8BD0000002002400010024091
:1077B00088130000F4DB010888060020044805490E
:1077C00000684968044A4905490F515CC840704740
:1077D000880600200010024004DC010810B512A346
:1077E0000FCB88B06C460FC413A30FCB0FC4164940
:1077F0004B680C201A4602401448042A12D0082A6A
:1078000010D19A02120F6C46A45CC96A04AA090737
:10781000090F525CD90300231946FAF722FD2146CD
:1078200002F046FC08B010BD020304050607080973
:107830000A0B0C0D0E0F10100102030405060708B9
:10784000090A0B0C0D0E0F100010024000127A00F6
:10785000FEB504007AD02078DA4EDB4DC00746D062
:1078600068680007800F012807D068680007800F4C
:10787000022809D16868C00306D52868800336D578
:1078800060680028E6D032E06168012912D001204A
:107890008004002901D0052910D02968B14329604E
:1078A0002968814329606068002814D0FFF7A8FA8E
:1078B00007460CE0286830432860F4E72968014354
:1078C0002960F7E7FFF79CFAC01B64287ED8286878
:1078D0008003F7D50BE0FFF793FA074604E0FFF7C4
:1078E0008FFAC01B6428F1D828688003F7D4207869
:1078F00080073BD568680007800F10D068680007D4
:10790000800F022800D16868E068002828681ED02F
:10791000012108432860FFF773FA07460BE0286847
:1079200080070BD5E068012810D107E0FFF768FA5F
:10793000C01B0228CAD828688007F7D52868F82114
:1079400088432169C900084328600FE036E14008F8
:1079500040002860FFF754FA074604E0FFF750FAAA
:10796000C01B0228B2D828688007F7D42078000707
:1079700022D5E0690028686A0FD0012108436862B7
:10798000FFF73EFA074604E0FFF73AFAC01B022869
:107990009CD8686A8007F7D50EE04008400068620E
:1079A000FFF72EFA074604E0FFF72AFAC01B022869
:1079B0008CD8686A8007F7D420780427400700280D
:1079C00063DA00200190E869C00000E08BE008D491
:1079D000E969B8060143E961E969014001200091C4
:1079E00001907A480168C90511D4016882151143D4
:1079F0000160FFF705FA009005E0FFF701FA009932
:107A0000401A64286FD871480068C005F5D5A06891
:107A100001280AD0002801D0052811D0286A400882
:107A200040002862286AB84302E0286A012108431E
:107A30002862A068002812D0FFF7E2F900900AE05F
:107A4000286A38432862F0E7FFF7DAF90099411A0B
:107A50005F48814247D8286A8007F5D50DE0FFF7D7
:107A6000CFF9009006E0FFF7CBF90099411A58488A
:107A7000814238D8286A8007F5D40198002804D0BC
:107A8000E969012000078143E9612078C00636D505
:107A9000606901280CD0401D686B25D038436863AD
:107AA000686B400840006863FFF7AAF9074623E0C7
:107AB000686B38436863686B012108436863FFF7AC
:107AC0009FF9074604E0FFF79BF9C01B02285BD82B
:107AD000686B8007F7D5686BF8218843A169C900F6
